{
  "_format": "hh-sol-artifact-1",
  "contractName": "SimpleLendingBorrowingUsingV3Pool",
  "sourceName": "contracts/LendingBorrowing.sol",
  "abi": [
    {
      "inputs": [],
      "stateMutability": "nonpayable",
      "type": "constructor"
    },
    {
      "anonymous": false,
      "inputs": [
        {
          "indexed": true,
          "internalType": "address",
          "name": "user",
          "type": "address"
        },
        {
          "indexed": false,
          "internalType": "address",
          "name": "token",
          "type": "address"
        },
        {
          "indexed": false,
          "internalType": "uint256",
          "name": "amount",
          "type": "uint256"
        }
      ],
      "name": "Borrowed",
      "type": "event"
    },
    {
      "anonymous": false,
      "inputs": [
        {
          "indexed": true,
          "internalType": "address",
          "name": "user",
          "type": "address"
        },
        {
          "indexed": false,
          "internalType": "address",
          "name": "token",
          "type": "address"
        },
        {
          "indexed": false,
          "internalType": "uint256",
          "name": "amount",
          "type": "uint256"
        }
      ],
      "name": "CollateralDeposited",
      "type": "event"
    },
    {
      "anonymous": false,
      "inputs": [
        {
          "indexed": true,
          "internalType": "address",
          "name": "user",
          "type": "address"
        },
        {
          "indexed": false,
          "internalType": "address",
          "name": "token",
          "type": "address"
        },
        {
          "indexed": false,
          "internalType": "uint256",
          "name": "amount",
          "type": "uint256"
        }
      ],
      "name": "CollateralWithdrawn",
      "type": "event"
    },
    {
      "anonymous": false,
      "inputs": [
        {
          "indexed": true,
          "internalType": "address",
          "name": "liquidator",
          "type": "address"
        },
        {
          "indexed": true,
          "internalType": "address",
          "name": "user",
          "type": "address"
        },
        {
          "indexed": false,
          "internalType": "uint256",
          "name": "repayAmount",
          "type": "uint256"
        },
        {
          "indexed": false,
          "internalType": "uint256",
          "name": "seizedCollateral",
          "type": "uint256"
        }
      ],
      "name": "Liquidated",
      "type": "event"
    },
    {
      "anonymous": false,
      "inputs": [
        {
          "indexed": true,
          "internalType": "address",
          "name": "user",
          "type": "address"
        },
        {
          "indexed": false,
          "internalType": "address",
          "name": "token",
          "type": "address"
        },
        {
          "indexed": false,
          "internalType": "uint256",
          "name": "amount",
          "type": "uint256"
        }
      ],
      "name": "Repaid",
      "type": "event"
    },
    {
      "inputs": [],
      "name": "ONE",
      "outputs": [
        {
          "internalType": "uint256",
          "name": "",
          "type": "uint256"
        }
      ],
      "stateMutability": "view",
      "type": "function"
    },
    {
      "inputs": [
        {
          "internalType": "address",
          "name": "borrowToken",
          "type": "address"
        },
        {
          "internalType": "uint256",
          "name": "amount",
          "type": "uint256"
        },
        {
          "internalType": "address",
          "name": "pool",
          "type": "address"
        }
      ],
      "name": "borrow",
      "outputs": [],
      "stateMutability": "nonpayable",
      "type": "function"
    },
    {
      "inputs": [],
      "name": "borrowRatePerSecond",
      "outputs": [
        {
          "internalType": "uint256",
          "name": "",
          "type": "uint256"
        }
      ],
      "stateMutability": "view",
      "type": "function"
    },
    {
      "inputs": [
        {
          "internalType": "address",
          "name": "",
          "type": "address"
        }
      ],
      "name": "collaterals",
      "outputs": [
        {
          "internalType": "address",
          "name": "token",
          "type": "address"
        },
        {
          "internalType": "uint256",
          "name": "amount",
          "type": "uint256"
        }
      ],
      "stateMutability": "view",
      "type": "function"
    },
    {
      "inputs": [
        {
          "internalType": "address",
          "name": "",
          "type": "address"
        }
      ],
      "name": "debts",
      "outputs": [
        {
          "internalType": "address",
          "name": "token",
          "type": "address"
        },
        {
          "internalType": "uint256",
          "name": "principal",
          "type": "uint256"
        },
        {
          "internalType": "uint256",
          "name": "interestIndex",
          "type": "uint256"
        },
        {
          "internalType": "uint256",
          "name": "lastAccrued",
          "type": "uint256"
        }
      ],
      "stateMutability": "view",
      "type": "function"
    },
    {
      "inputs": [
        {
          "internalType": "address",
          "name": "token",
          "type": "address"
        },
        {
          "internalType": "uint256",
          "name": "amount",
          "type": "uint256"
        }
      ],
      "name": "depositCollateral",
      "outputs": [],
      "stateMutability": "nonpayable",
      "type": "function"
    },
    {
      "inputs": [
        {
          "internalType": "address",
          "name": "token",
          "type": "address"
        },
        {
          "internalType": "uint256",
          "name": "amt",
          "type": "uint256"
        },
        {
          "internalType": "address",
          "name": "to",
          "type": "address"
        }
      ],
      "name": "emergencyWithdrawToken",
      "outputs": [],
      "stateMutability": "nonpayable",
      "type": "function"
    },
    {
      "inputs": [
        {
          "internalType": "address",
          "name": "user",
          "type": "address"
        },
        {
          "internalType": "uint256",
          "name": "repayAmount",
          "type": "uint256"
        },
        {
          "internalType": "address",
          "name": "pool",
          "type": "address"
        }
      ],
      "name": "liquidate",
      "outputs": [],
      "stateMutability": "nonpayable",
      "type": "function"
    },
    {
      "inputs": [],
      "name": "liquidationThreshold",
      "outputs": [
        {
          "internalType": "uint256",
          "name": "",
          "type": "uint256"
        }
      ],
      "stateMutability": "view",
      "type": "function"
    },
    {
      "inputs": [],
      "name": "maxLTV",
      "outputs": [
        {
          "internalType": "uint256",
          "name": "",
          "type": "uint256"
        }
      ],
      "stateMutability": "view",
      "type": "function"
    },
    {
      "inputs": [],
      "name": "owner",
      "outputs": [
        {
          "internalType": "address",
          "name": "",
          "type": "address"
        }
      ],
      "stateMutability": "view",
      "type": "function"
    },
    {
      "inputs": [
        {
          "internalType": "uint256",
          "name": "amount",
          "type": "uint256"
        }
      ],
      "name": "repay",
      "outputs": [],
      "stateMutability": "nonpayable",
      "type": "function"
    },
    {
      "inputs": [
        {
          "internalType": "uint256",
          "name": "_r",
          "type": "uint256"
        }
      ],
      "name": "setBorrowRatePerSecond",
      "outputs": [],
      "stateMutability": "nonpayable",
      "type": "function"
    },
    {
      "inputs": [
        {
          "internalType": "uint256",
          "name": "_t",
          "type": "uint256"
        }
      ],
      "name": "setLiquidationThreshold",
      "outputs": [],
      "stateMutability": "nonpayable",
      "type": "function"
    },
    {
      "inputs": [
        {
          "internalType": "uint256",
          "name": "_maxLTV",
          "type": "uint256"
        }
      ],
      "name": "setMaxLTV",
      "outputs": [],
      "stateMutability": "nonpayable",
      "type": "function"
    },
    {
      "inputs": [
        {
          "internalType": "uint256",
          "name": "amount",
          "type": "uint256"
        },
        {
          "internalType": "address",
          "name": "pool",
          "type": "address"
        }
      ],
      "name": "withdrawCollateral",
      "outputs": [],
      "stateMutability": "nonpayable",
      "type": "function"
    }
  ],
  "bytecode": "0x6080604052670a688906bd8b0000600355670bcbce7f1b150000600455635e80a6bf60055534801561003057600080fd5b50600080546001600160a01b03191633179055611e01806100526000396000f3fe608060405234801561001057600080fd5b50600436106101005760003560e01c80637f0425fa11610097578063c2ee3a0811610066578063c2ee3a08146101fd578063d0b0c81614610205578063eeb97d3b14610218578063f384bd051461023957610100565b80637f0425fa146101af57806383509080146101c25780638da5cb5b146101d5578063a5d5db0c146101ea57610100565b80634031234c116100d35780634031234c1461016c5780634914c0081461018157806352609750146101945780636c665a551461019c57610100565b806308a0c375146101055780630af504cc1461011a5780632ecd4e7d1461012d578063371fd8e614610159575b600080fd5b610118610113366004611a6c565b610241565b005b610118610128366004611a84565b6102e2565b61014061013b366004611910565b6104ad565b6040516101509493929190611b2b565b60405180910390f35b610118610167366004611a6c565b6104ed565b610174610693565b6040516101509190611dbb565b61011861018f36600461197a565b610699565b610174610991565b6101186101aa36600461197a565b610997565b6101186101bd366004611a6c565b610c8e565b6101186101d036600461197a565b610ce4565b6101dd610de1565b6040516101509190611ab3565b6101186101f836600461194f565b610dfd565b610174610fce565b610118610213366004611a6c565b610fda565b61022b610226366004611910565b611072565b604051610150929190611b05565b6101746110a4565b60005473ffffffffffffffffffffffffffffffffffffffff16331461029b576040517f08c379a000000000000000000000000000000000000000000000000000000000815260040161029290611c71565b60405180910390fd5b670de0b6b3a76400008111156102dd576040517f08c379a000000000000000000000000000000000000000000000000000000000815260040161029290611d84565b600355565b3360009081526001602081905260409091209081015483118015906103075750600083115b61033d576040517f08c379a000000000000000000000000000000000000000000000000000000000815260040161029290611b95565b60018101548154908490039061036d903390839073ffffffffffffffffffffffffffffffffffffffff16866110aa565b6103a3576040517f08c379a000000000000000000000000000000000000000000000000000000000815260040161029290611c3a565b6001820181905581546040517fa9059cbb00000000000000000000000000000000000000000000000000000000815273ffffffffffffffffffffffffffffffffffffffff9091169063a9059cbb906104019033908890600401611b05565b602060405180830381600087803b15801561041b57600080fd5b505af115801561042f573d6000803e3d6000fd5b505050506040513d601f19601f8201168201806040525081019061045391906119bb565b50815460405133917f45892a46e6cef329bb642da6d69846d324db43d19008edc141ed82382eda1bee9161049f9173ffffffffffffffffffffffffffffffffffffffff16908890611b05565b60405180910390a250505050565b6002602081905260009182526040909120805460018201549282015460039092015473ffffffffffffffffffffffffffffffffffffffff90911692919084565b33600090815260026020526040902060018101541580159061050f5750600082115b610545576040517f08c379a000000000000000000000000000000000000000000000000000000000815260040161029290611cdf565b61054e336112b4565b6000816001015483116105615782610567565b81600101545b82546040517f23b872dd00000000000000000000000000000000000000000000000000000000815291925073ffffffffffffffffffffffffffffffffffffffff16906323b872dd906105c190339030908690600401611ad4565b602060405180830381600087803b1580156105db57600080fd5b505af11580156105ef573d6000803e3d6000fd5b505050506040513d601f19601f8201168201806040525081019061061391906119bb565b506001820180548290039081905561063b5760006003830155670de0b6b3a764000060028301555b815460405133917f0a3fbbea70e93f2daafa3102f5c9a1b8315e6d7a1e43e4bc020bc1162327470a916106869173ffffffffffffffffffffffffffffffffffffffff16908590611b05565b60405180910390a2505050565b60045481565b600082116106d3576040517f08c379a000000000000000000000000000000000000000000000000000000000815260040161029290611bcc565b6106dd8382611351565b610713576040517f08c379a000000000000000000000000000000000000000000000000000000000815260040161029290611d16565b73ffffffffffffffffffffffffffffffffffffffff83166000908152600260209081526040808320600190925290912061074c856112b4565b60008260010154851161075f5784610765565b82600101545b83546040517f23b872dd00000000000000000000000000000000000000000000000000000000815291925073ffffffffffffffffffffffffffffffffffffffff16906323b872dd906107bf90339030908690600401611ad4565b602060405180830381600087803b1580156107d957600080fd5b505af11580156107ed573d6000803e3d6000fd5b505050506040513d601f19601f8201168201806040525081019061081191906119bb565b508154835460009161083e9173ffffffffffffffffffffffffffffffffffffffff918216911684886113ca565b6001840154909150606460058302049081830190811115610860575060018401545b60018087018054869003905585018054829003905584546040517fa9059cbb00000000000000000000000000000000000000000000000000000000815273ffffffffffffffffffffffffffffffffffffffff9091169063a9059cbb906108cc9033908590600401611b05565b602060405180830381600087803b1580156108e657600080fd5b505af11580156108fa573d6000803e3d6000fd5b505050506040513d601f19601f8201168201806040525081019061091e91906119bb565b508873ffffffffffffffffffffffffffffffffffffffff163373ffffffffffffffffffffffffffffffffffffffff167f1f0c6615429d1cdae0dfa233abf91d3b31cdbdd82c8081389832a61e1072f1ea868460405161097e929190611dc4565b60405180910390a3505050505050505050565b60055481565b600082116109d1576040517f08c379a000000000000000000000000000000000000000000000000000000000815260040161029290611bcc565b33600090815260016020819052604090912090810154610a1d576040517f08c379a000000000000000000000000000000000000000000000000000000000815260040161029290611b5e565b610a26336112b4565b336000818152600260205260408120600181015490929086019190610a4b9086611634565b905060008111610a87576040517f08c379a000000000000000000000000000000000000000000000000000000000815260040161029290611d84565b600354670de0b6b3a764000083810291830204811115610ad3576040517f08c379a000000000000000000000000000000000000000000000000000000000815260040161029290611c03565b6001840154610b335783547fffffffffffffffffffffffff00000000000000000000000000000000000000001673ffffffffffffffffffffffffffffffffffffffff8916178455426003850155670de0b6b3a76400006002850155610b86565b835473ffffffffffffffffffffffffffffffffffffffff898116911614610b86576040517f08c379a000000000000000000000000000000000000000000000000000000000815260040161029290611ca8565b600184018390556040517fa9059cbb00000000000000000000000000000000000000000000000000000000815273ffffffffffffffffffffffffffffffffffffffff89169063a9059cbb90610be19033908b90600401611b05565b602060405180830381600087803b158015610bfb57600080fd5b505af1158015610c0f573d6000803e3d6000fd5b505050506040513d601f19601f82011682018060405250810190610c3391906119bb565b503373ffffffffffffffffffffffffffffffffffffffff167f3fc499aeb0bb1cb58b6de8b02b3f86f4e7394e9690bef0110e32ced8a56310458989604051610c7c929190611b05565b60405180910390a25050505050505050565b60005473ffffffffffffffffffffffffffffffffffffffff163314610cdf576040517f08c379a000000000000000000000000000000000000000000000000000000000815260040161029290611c71565b600555565b60005473ffffffffffffffffffffffffffffffffffffffff163314610d35576040517f08c379a000000000000000000000000000000000000000000000000000000000815260040161029290611c71565b6040517fa9059cbb00000000000000000000000000000000000000000000000000000000815273ffffffffffffffffffffffffffffffffffffffff84169063a9059cbb90610d899084908690600401611b05565b602060405180830381600087803b158015610da357600080fd5b505af1158015610db7573d6000803e3d6000fd5b505050506040513d601f19601f82011682018060405250810190610ddb91906119bb565b50505050565b60005473ffffffffffffffffffffffffffffffffffffffff1681565b60008111610e37576040517f08c379a000000000000000000000000000000000000000000000000000000000815260040161029290611bcc565b6040517f23b872dd00000000000000000000000000000000000000000000000000000000815273ffffffffffffffffffffffffffffffffffffffff8316906323b872dd90610e8d90339030908690600401611ad4565b602060405180830381600087803b158015610ea757600080fd5b505af1158015610ebb573d6000803e3d6000fd5b505050506040513d601f19601f82011682018060405250810190610edf91906119bb565b5033600090815260016020819052604090912090810154610f3d5780547fffffffffffffffffffffffff00000000000000000000000000000000000000001673ffffffffffffffffffffffffffffffffffffffff8416178155610f90565b805473ffffffffffffffffffffffffffffffffffffffff848116911614610f90576040517f08c379a000000000000000000000000000000000000000000000000000000000815260040161029290611d4d565b6001810180548301905560405133907ff1c0dd7e9b98bbff859029005ef89b127af049cd18df1a8d79f0b7e019911e56906106869086908690611b05565b670de0b6b3a764000081565b60005473ffffffffffffffffffffffffffffffffffffffff16331461102b576040517f08c379a000000000000000000000000000000000000000000000000000000000815260040161029290611c71565b670de0b6b3a764000081111561106d576040517f08c379a000000000000000000000000000000000000000000000000000000000815260040161029290611d84565b600455565b6001602081905260009182526040909120805491015473ffffffffffffffffffffffffffffffffffffffff9091169082565b60035481565b73ffffffffffffffffffffffffffffffffffffffff8416600090815260026020526040812060018101546110e25760019150506112ac565b600083905060008173ffffffffffffffffffffffffffffffffffffffff16630dfe16816040518163ffffffff1660e01b815260040160206040518083038186803b15801561112f57600080fd5b505afa158015611143573d6000803e3d6000fd5b505050506040513d601f19601f820116820180604052508101906111679190611933565b905060008273ffffffffffffffffffffffffffffffffffffffff1663d21220a76040518163ffffffff1660e01b815260040160206040518083038186803b1580156111b157600080fd5b505afa1580156111c5573d6000803e3d6000fd5b505050506040513d601f19601f820116820180604052508101906111e99190611933565b905060006111f687611815565b905060008373ffffffffffffffffffffffffffffffffffffffff168973ffffffffffffffffffffffffffffffffffffffff1614611278578273ffffffffffffffffffffffffffffffffffffffff168973ffffffffffffffffffffffffffffffffffffffff1614611267576000611273565b670de0b6b3a76400008a025b611286565b670de0b6b3a76400008a8302045b6001870154600354919250670de0b6b3a764000090810291830204101596505050505050505b949350505050565b73ffffffffffffffffffffffffffffffffffffffff8116600090815260026020526040902060018101546112e8575061134e565b60038101544203806112fb57505061134e565b6000816005540290506000670de0b6b3a7640000828560020154028161131d57fe5b0484600201540190508360020154818560010154028161133957fe5b04600185015560028401555050426003909101555b50565b73ffffffffffffffffffffffffffffffffffffffff8216600090815260026020526040812060018101546113895760009150506113c4565b60006113958585611634565b9050806113a7576000925050506113c4565b60019190910154600454670de0b6b3a76400009182029202041090505b92915050565b60008082905060008173ffffffffffffffffffffffffffffffffffffffff16630dfe16816040518163ffffffff1660e01b815260040160206040518083038186803b15801561141857600080fd5b505afa15801561142c573d6000803e3d6000fd5b505050506040513d601f19601f820116820180604052508101906114509190611933565b905060008273ffffffffffffffffffffffffffffffffffffffff1663d21220a76040518163ffffffff1660e01b815260040160206040518083038186803b15801561149a57600080fd5b505afa1580156114ae573d6000803e3d6000fd5b505050506040513d601f19601f820116820180604052508101906114d29190611933565b905060006114df86611815565b90508273ffffffffffffffffffffffffffffffffffffffff168973ffffffffffffffffffffffffffffffffffffffff1614801561154757508173ffffffffffffffffffffffffffffffffffffffff168873ffffffffffffffffffffffffffffffffffffffff16145b1561156b5780670de0b6b3a764000088028161155f57fe5b049450505050506112ac565b8173ffffffffffffffffffffffffffffffffffffffff168973ffffffffffffffffffffffffffffffffffffffff161480156115d157508273ffffffffffffffffffffffffffffffffffffffff168873ffffffffffffffffffffffffffffffffffffffff16145b156115e757670de0b6b3a764000087820261155f565b8773ffffffffffffffffffffffffffffffffffffffff168973ffffffffffffffffffffffffffffffffffffffff16141561162757869450505050506112ac565b60009450505050506112ac565b73ffffffffffffffffffffffffffffffffffffffff8216600090815260016020819052604082209081015461166d5760009150506113c4565b600083905060008173ffffffffffffffffffffffffffffffffffffffff16630dfe16816040518163ffffffff1660e01b815260040160206040518083038186803b1580156116ba57600080fd5b505afa1580156116ce573d6000803e3d6000fd5b505050506040513d601f19601f820116820180604052508101906116f29190611933565b905060008273ffffffffffffffffffffffffffffffffffffffff1663d21220a76040518163ffffffff1660e01b815260040160206040518083038186803b15801561173c57600080fd5b505afa158015611750573d6000803e3d6000fd5b505050506040513d601f19601f820116820180604052508101906117749190611933565b9050600061178187611815565b855490915073ffffffffffffffffffffffffffffffffffffffff848116911614156117ca57670de0b6b3a764000081866001015402816117bd57fe5b04955050505050506113c4565b845473ffffffffffffffffffffffffffffffffffffffff8381169116141561180757670de0b6b3a7640000856001015402955050505050506113c4565b6000955050505050506113c4565b60008082905060008173ffffffffffffffffffffffffffffffffffffffff16633850c7bd6040518163ffffffff1660e01b815260040160e06040518083038186803b15801561186357600080fd5b505afa158015611877573d6000803e3d6000fd5b505050506040513d601f19601f8201168201806040525081019061189b91906119d5565b5050780100000000000000000000000000000000000000000000000073ffffffffffffffffffffffffffffffffffffffff959095168002670de0b6b3a7640000029490940496505050505050505b919050565b805180151581146118e957600080fd5b805161ffff811681146118e957600080fd5b600060208284031215611921578081fd5b813561192c81611dd2565b9392505050565b600060208284031215611944578081fd5b815161192c81611dd2565b60008060408385031215611961578081fd5b823561196c81611dd2565b946020939093013593505050565b60008060006060848603121561198e578081fd5b833561199981611dd2565b92506020840135915060408401356119b081611dd2565b809150509250925092565b6000602082840312156119cc578081fd5b61192c826118ee565b600080600080600080600060e0888a0312156119ef578283fd5b87516119fa81611dd2565b8097505060208801518060020b8114611a11578384fd5b9550611a1f604089016118fe565b9450611a2d606089016118fe565b9350611a3b608089016118fe565b925060a088015160ff81168114611a50578283fd5b9150611a5e60c089016118ee565b905092959891949750929550565b600060208284031215611a7d578081fd5b5035919050565b60008060408385031215611a96578182fd5b823591506020830135611aa881611dd2565b809150509250929050565b73ffffffffffffffffffffffffffffffffffffffff91909116815260200190565b73ffffffffffffffffffffffffffffffffffffffff9384168152919092166020820152604081019190915260600190565b73ffffffffffffffffffffffffffffffffffffffff929092168252602082015260400190565b73ffffffffffffffffffffffffffffffffffffffff94909416845260208401929092526040830152606082015260800190565b6020808252600d908201527f6e6f20636f6c6c61746572616c00000000000000000000000000000000000000604082015260600190565b6020808252600c908201527f696e73756666696369656e740000000000000000000000000000000000000000604082015260600190565b60208082526004908201527f7a65726f00000000000000000000000000000000000000000000000000000000604082015260600190565b60208082526003908201527f6c74760000000000000000000000000000000000000000000000000000000000604082015260600190565b60208082526013908201527f756e646572636f6c6c61746572616c697a656400000000000000000000000000604082015260600190565b6020808252600a908201527f6f6e6c79206f776e657200000000000000000000000000000000000000000000604082015260600190565b60208082526009908201527f6469666620646562740000000000000000000000000000000000000000000000604082015260600190565b60208082526007908201527f6e6f206465627400000000000000000000000000000000000000000000000000604082015260600190565b60208082526007908201527f6e6f74206c697100000000000000000000000000000000000000000000000000604082015260600190565b6020808252600a908201527f6469666620746f6b656e00000000000000000000000000000000000000000000604082015260600190565b60208082526007908201527f696e76616c696400000000000000000000000000000000000000000000000000604082015260600190565b90815260200190565b918252602082015260400190565b73ffffffffffffffffffffffffffffffffffffffff8116811461134e57600080fdfea164736f6c6343000706000a",
  "linkReferences": {},
  "deployedLinkReferences": {}
}