{
  "_format": "hh-sol-artifact-1",
  "contractName": "SimpleLendingBorrowingUsingV3Pool",
  "sourceName": "contracts/LendingBorrowing.sol",
  "abi": [
    {
      "inputs": [
        {
          "internalType": "address",
          "name": "_factory",
          "type": "address"
        }
      ],
      "stateMutability": "nonpayable",
      "type": "constructor"
    },
    {
      "anonymous": false,
      "inputs": [
        {
          "indexed": true,
          "internalType": "address",
          "name": "user",
          "type": "address"
        },
        {
          "indexed": false,
          "internalType": "address",
          "name": "token",
          "type": "address"
        },
        {
          "indexed": false,
          "internalType": "uint256",
          "name": "amount",
          "type": "uint256"
        }
      ],
      "name": "Borrowed",
      "type": "event"
    },
    {
      "anonymous": false,
      "inputs": [
        {
          "indexed": true,
          "internalType": "address",
          "name": "user",
          "type": "address"
        },
        {
          "indexed": false,
          "internalType": "address",
          "name": "token",
          "type": "address"
        },
        {
          "indexed": false,
          "internalType": "uint256",
          "name": "amount",
          "type": "uint256"
        }
      ],
      "name": "CollateralDeposited",
      "type": "event"
    },
    {
      "anonymous": false,
      "inputs": [
        {
          "indexed": true,
          "internalType": "address",
          "name": "user",
          "type": "address"
        },
        {
          "indexed": false,
          "internalType": "address",
          "name": "token",
          "type": "address"
        },
        {
          "indexed": false,
          "internalType": "uint256",
          "name": "amount",
          "type": "uint256"
        }
      ],
      "name": "CollateralWithdrawn",
      "type": "event"
    },
    {
      "anonymous": false,
      "inputs": [
        {
          "indexed": true,
          "internalType": "address",
          "name": "liquidator",
          "type": "address"
        },
        {
          "indexed": true,
          "internalType": "address",
          "name": "user",
          "type": "address"
        },
        {
          "indexed": false,
          "internalType": "uint256",
          "name": "repayAmount",
          "type": "uint256"
        },
        {
          "indexed": false,
          "internalType": "uint256",
          "name": "seizedCollateral",
          "type": "uint256"
        }
      ],
      "name": "Liquidated",
      "type": "event"
    },
    {
      "anonymous": false,
      "inputs": [
        {
          "indexed": true,
          "internalType": "address",
          "name": "user",
          "type": "address"
        },
        {
          "indexed": false,
          "internalType": "address",
          "name": "token",
          "type": "address"
        },
        {
          "indexed": false,
          "internalType": "uint256",
          "name": "amount",
          "type": "uint256"
        }
      ],
      "name": "Repaid",
      "type": "event"
    },
    {
      "inputs": [],
      "name": "ONE",
      "outputs": [
        {
          "internalType": "uint256",
          "name": "",
          "type": "uint256"
        }
      ],
      "stateMutability": "view",
      "type": "function"
    },
    {
      "inputs": [],
      "name": "YEAR",
      "outputs": [
        {
          "internalType": "uint256",
          "name": "",
          "type": "uint256"
        }
      ],
      "stateMutability": "view",
      "type": "function"
    },
    {
      "inputs": [
        {
          "internalType": "address",
          "name": "borrowToken",
          "type": "address"
        },
        {
          "internalType": "uint256",
          "name": "amount",
          "type": "uint256"
        }
      ],
      "name": "borrow",
      "outputs": [],
      "stateMutability": "nonpayable",
      "type": "function"
    },
    {
      "inputs": [],
      "name": "borrowRatePerSecond",
      "outputs": [
        {
          "internalType": "uint256",
          "name": "",
          "type": "uint256"
        }
      ],
      "stateMutability": "view",
      "type": "function"
    },
    {
      "inputs": [
        {
          "internalType": "address",
          "name": "",
          "type": "address"
        }
      ],
      "name": "collaterals",
      "outputs": [
        {
          "internalType": "address",
          "name": "token",
          "type": "address"
        },
        {
          "internalType": "uint256",
          "name": "amount",
          "type": "uint256"
        }
      ],
      "stateMutability": "view",
      "type": "function"
    },
    {
      "inputs": [
        {
          "internalType": "address",
          "name": "",
          "type": "address"
        }
      ],
      "name": "debts",
      "outputs": [
        {
          "internalType": "address",
          "name": "token",
          "type": "address"
        },
        {
          "internalType": "uint256",
          "name": "principal",
          "type": "uint256"
        },
        {
          "internalType": "uint256",
          "name": "interestIndex",
          "type": "uint256"
        },
        {
          "internalType": "uint256",
          "name": "lastAccrued",
          "type": "uint256"
        }
      ],
      "stateMutability": "view",
      "type": "function"
    },
    {
      "inputs": [
        {
          "internalType": "address",
          "name": "token",
          "type": "address"
        },
        {
          "internalType": "uint256",
          "name": "amount",
          "type": "uint256"
        }
      ],
      "name": "depositCollateral",
      "outputs": [],
      "stateMutability": "nonpayable",
      "type": "function"
    },
    {
      "inputs": [
        {
          "internalType": "address",
          "name": "token",
          "type": "address"
        },
        {
          "internalType": "uint256",
          "name": "amt",
          "type": "uint256"
        },
        {
          "internalType": "address",
          "name": "to",
          "type": "address"
        }
      ],
      "name": "emergencyWithdrawToken",
      "outputs": [],
      "stateMutability": "nonpayable",
      "type": "function"
    },
    {
      "inputs": [],
      "name": "getBorrowAPRPercent",
      "outputs": [
        {
          "internalType": "uint256",
          "name": "",
          "type": "uint256"
        }
      ],
      "stateMutability": "view",
      "type": "function"
    },
    {
      "inputs": [],
      "name": "getBorrowAPRScaled",
      "outputs": [
        {
          "internalType": "uint256",
          "name": "",
          "type": "uint256"
        }
      ],
      "stateMutability": "view",
      "type": "function"
    },
    {
      "inputs": [],
      "name": "getCollateralFactor",
      "outputs": [
        {
          "internalType": "uint256",
          "name": "",
          "type": "uint256"
        }
      ],
      "stateMutability": "view",
      "type": "function"
    },
    {
      "inputs": [
        {
          "internalType": "address",
          "name": "user",
          "type": "address"
        }
      ],
      "name": "getCollateralValue",
      "outputs": [
        {
          "internalType": "uint256",
          "name": "",
          "type": "uint256"
        }
      ],
      "stateMutability": "view",
      "type": "function"
    },
    {
      "inputs": [
        {
          "internalType": "address",
          "name": "user",
          "type": "address"
        }
      ],
      "name": "getHealthFactor",
      "outputs": [
        {
          "internalType": "uint256",
          "name": "",
          "type": "uint256"
        }
      ],
      "stateMutability": "view",
      "type": "function"
    },
    {
      "inputs": [
        {
          "internalType": "address",
          "name": "user",
          "type": "address"
        }
      ],
      "name": "getSupplyAPY",
      "outputs": [
        {
          "internalType": "uint256",
          "name": "",
          "type": "uint256"
        }
      ],
      "stateMutability": "view",
      "type": "function"
    },
    {
      "inputs": [
        {
          "internalType": "address",
          "name": "user",
          "type": "address"
        },
        {
          "internalType": "uint256",
          "name": "repayAmount",
          "type": "uint256"
        }
      ],
      "name": "liquidate",
      "outputs": [],
      "stateMutability": "nonpayable",
      "type": "function"
    },
    {
      "inputs": [],
      "name": "liquidationThreshold",
      "outputs": [
        {
          "internalType": "uint256",
          "name": "",
          "type": "uint256"
        }
      ],
      "stateMutability": "view",
      "type": "function"
    },
    {
      "inputs": [],
      "name": "maxLTV",
      "outputs": [
        {
          "internalType": "uint256",
          "name": "",
          "type": "uint256"
        }
      ],
      "stateMutability": "view",
      "type": "function"
    },
    {
      "inputs": [],
      "name": "owner",
      "outputs": [
        {
          "internalType": "address",
          "name": "",
          "type": "address"
        }
      ],
      "stateMutability": "view",
      "type": "function"
    },
    {
      "inputs": [
        {
          "internalType": "uint256",
          "name": "amount",
          "type": "uint256"
        }
      ],
      "name": "repay",
      "outputs": [],
      "stateMutability": "nonpayable",
      "type": "function"
    },
    {
      "inputs": [],
      "name": "reserveFactor",
      "outputs": [
        {
          "internalType": "uint256",
          "name": "",
          "type": "uint256"
        }
      ],
      "stateMutability": "view",
      "type": "function"
    },
    {
      "inputs": [
        {
          "internalType": "uint256",
          "name": "_r",
          "type": "uint256"
        }
      ],
      "name": "setBorrowRatePerSecond",
      "outputs": [],
      "stateMutability": "nonpayable",
      "type": "function"
    },
    {
      "inputs": [
        {
          "internalType": "address",
          "name": "_factory",
          "type": "address"
        }
      ],
      "name": "setFactory",
      "outputs": [],
      "stateMutability": "nonpayable",
      "type": "function"
    },
    {
      "inputs": [
        {
          "internalType": "uint256",
          "name": "_t",
          "type": "uint256"
        }
      ],
      "name": "setLiquidationThreshold",
      "outputs": [],
      "stateMutability": "nonpayable",
      "type": "function"
    },
    {
      "inputs": [
        {
          "internalType": "uint256",
          "name": "_maxLTV",
          "type": "uint256"
        }
      ],
      "name": "setMaxLTV",
      "outputs": [],
      "stateMutability": "nonpayable",
      "type": "function"
    },
    {
      "inputs": [
        {
          "internalType": "uint256",
          "name": "_reserveFactor",
          "type": "uint256"
        }
      ],
      "name": "setReserveFactor",
      "outputs": [],
      "stateMutability": "nonpayable",
      "type": "function"
    },
    {
      "inputs": [],
      "name": "uniswapFactory",
      "outputs": [
        {
          "internalType": "contract IUniswapV3Factory",
          "name": "",
          "type": "address"
        }
      ],
      "stateMutability": "view",
      "type": "function"
    },
    {
      "inputs": [
        {
          "internalType": "uint256",
          "name": "amount",
          "type": "uint256"
        }
      ],
      "name": "withdrawCollateral",
      "outputs": [],
      "stateMutability": "nonpayable",
      "type": "function"
    }
  ],
  "bytecode": "0x6080604052670a688906bd8b0000600455670bcbce7f1b150000600555635e80a6bf60065567016345785d8a00006007553480156200003d57600080fd5b506040516200293a3803806200293a833981016040819052620000609162000094565b60008054336001600160a01b031991821617909155600180549091166001600160a01b0392909216919091179055620000c4565b600060208284031215620000a6578081fd5b81516001600160a01b0381168114620000bd578182fd5b9392505050565b61286680620000d46000396000f3fe608060405234801561001057600080fd5b50600436106101b95760003560e01c80636112fe2e116100f9578063a5d5db0c11610097578063d0b0c81611610071578063d0b0c8161461033a578063eeb97d3b1461034d578063f384bd051461036e578063fe6bcd7c14610376576101b9565b8063a5d5db0c1461030c578063bcbaf4871461031f578063c2ee3a0814610332576101b9565b806383914540116100d357806383914540146102d45780638bdb2afa146102dc5780638da5cb5b146102f157806397904e42146102f9576101b9565b80636112fe2e1461029b5780637f0425fa146102ae57806383509080146102c1576101b9565b8063371fd8e6116101665780634322b714116101405780634322b714146102655780634b8a35291461026d57806352609750146102805780635bb4780814610288576101b9565b8063371fd8e6146102375780633842ea421461024a5780634031234c1461025d576101b9565b806328605b9e1161019757806328605b9e146102045780632ecd4e7d1461020c57806335392b711461022f576101b9565b8063046e0d91146101be57806308a0c375146101dc5780631c446983146101f1575b600080fd5b6101c6610389565b6040516101d39190612820565b60405180910390f35b6101ef6101ea366004612494565b610398565b005b6101ef6101ff366004612494565b610439565b6101c66104d1565b61021f61021a366004612338565b6104f2565b6040516101d39493929190612559565b6101c6610532565b6101ef610245366004612494565b610538565b6101c6610258366004612338565b6106de565b6101c661084f565b6101c6610855565b6101ef61027b366004612377565b61085b565b6101c6610bc2565b6101ef610296366004612338565b610bc8565b6101ef6102a9366004612494565b610c60565b6101ef6102bc366004612494565b610ec5565b6101ef6102cf3660046123a2565b610f1b565b6101c6611018565b6102e4611020565b6040516101d391906124ac565b6102e461103c565b6101c6610307366004612338565b611058565b6101ef61031a366004612377565b611125565b6101ef61032d366004612377565b6112f4565b6101c66116a0565b6101ef610348366004612494565b6116ac565b61036061035b366004612338565b611744565b6040516101d39291906124fe565b6101c6611776565b6101c6610384366004612338565b61177c565b60006103936104d1565b905090565b60005473ffffffffffffffffffffffffffffffffffffffff1633146103f2576040517f08c379a00000000000000000000000000000000000000000000000000000000081526004016103e9906126d6565b60405180910390fd5b670de0b6b3a7640000811115610434576040517f08c379a00000000000000000000000000000000000000000000000000000000081526004016103e9906127e9565b600455565b60005473ffffffffffffffffffffffffffffffffffffffff16331461048a576040517f08c379a00000000000000000000000000000000000000000000000000000000081526004016103e9906126d6565b670de0b6b3a76400008111156104cc576040517f08c379a00000000000000000000000000000000000000000000000000000000081526004016103e9906127e9565b600755565b6000670de0b6b3a76400006301e1338060065402816104ec57fe5b04905090565b6003602081905260009182526040909120805460018201546002830154929093015473ffffffffffffffffffffffffffffffffffffffff90911692919084565b60045490565b33600090815260036020526040902060018101541580159061055a5750600082115b610590576040517f08c379a00000000000000000000000000000000000000000000000000000000081526004016103e990612744565b61059933611884565b6000816001015483116105ac57826105b2565b81600101545b82546040517f23b872dd00000000000000000000000000000000000000000000000000000000815291925073ffffffffffffffffffffffffffffffffffffffff16906323b872dd9061060c903390309086906004016124cd565b602060405180830381600087803b15801561062657600080fd5b505af115801561063a573d6000803e3d6000fd5b505050506040513d601f19601f8201168201806040525081019061065e91906123e3565b50600182018054829003908190556106865760006003830155670de0b6b3a764000060028301555b815460405133917f0a3fbbea70e93f2daafa3102f5c9a1b8315e6d7a1e43e4bc020bc1162327470a916106d19173ffffffffffffffffffffffffffffffffffffffff169085906124fe565b60405180910390a2505050565b73ffffffffffffffffffffffffffffffffffffffff811660009081526003602090815260408083206002909252822060018101546107215760009250505061084a565b60018201546000901561075c57815483546107559173ffffffffffffffffffffffffffffffffffffffff9081169116611921565b9050610768565b6000935050505061084a565b73ffffffffffffffffffffffffffffffffffffffff811661078f576000935050505061084a565b600061079b8683611b4f565b9050806107af57600094505050505061084a565b6000670de0b6b3a76400006004548302816107c657fe5b049050806107dc5760009550505050505061084a565b600081670de0b6b3a7640000876001015402816107f557fe5b04905060006108026104d1565b90506000600754670de0b6b3a76400000390506000670de0b6b3a764000082670de0b6b3a76400008686028161083457fe5b04028161083d57fe5b0499505050505050505050505b919050565b60055481565b60075481565b60008111610895576040517f08c379a00000000000000000000000000000000000000000000000000000000081526004016103e990612631565b33600090815260026020526040902060018101546108df576040517f08c379a00000000000000000000000000000000000000000000000000000000081526004016103e99061258c565b6108e833611884565b336000908152600360205260408120600181015483549192908501916109249073ffffffffffffffffffffffffffffffffffffffff1687611921565b905073ffffffffffffffffffffffffffffffffffffffff8116610973576040517f08c379a00000000000000000000000000000000000000000000000000000000081526004016103e9906125fa565b600061097f3383611b4f565b9050600081116109bb576040517f08c379a00000000000000000000000000000000000000000000000000000000081526004016103e9906127e9565b600454670de0b6b3a764000084810291830204811115610a07576040517f08c379a00000000000000000000000000000000000000000000000000000000081526004016103e990612668565b6001850154610a675784547fffffffffffffffffffffffff00000000000000000000000000000000000000001673ffffffffffffffffffffffffffffffffffffffff8916178555426003860155670de0b6b3a76400006002860155610aba565b845473ffffffffffffffffffffffffffffffffffffffff898116911614610aba576040517f08c379a00000000000000000000000000000000000000000000000000000000081526004016103e99061270d565b600185018490556040517fa9059cbb00000000000000000000000000000000000000000000000000000000815273ffffffffffffffffffffffffffffffffffffffff89169063a9059cbb90610b159033908b906004016124fe565b602060405180830381600087803b158015610b2f57600080fd5b505af1158015610b43573d6000803e3d6000fd5b505050506040513d601f19601f82011682018060405250810190610b6791906123e3565b503373ffffffffffffffffffffffffffffffffffffffff167f3fc499aeb0bb1cb58b6de8b02b3f86f4e7394e9690bef0110e32ced8a56310458989604051610bb09291906124fe565b60405180910390a25050505050505050565b60065481565b60005473ffffffffffffffffffffffffffffffffffffffff163314610c19576040517f08c379a00000000000000000000000000000000000000000000000000000000081526004016103e9906126d6565b600180547fffffffffffffffffffffffff00000000000000000000000000000000000000001673ffffffffffffffffffffffffffffffffffffffff92909216919091179055565b33600090815260026020526040902060018101548211801590610c835750600082115b610cb9576040517f08c379a00000000000000000000000000000000000000000000000000000000081526004016103e9906125c3565b600180820154336000908152600360205260408120928301549185900392909115610d595783548154610d059173ffffffffffffffffffffffffffffffffffffffff9081169116611921565b915073ffffffffffffffffffffffffffffffffffffffff8216610d54576040517f08c379a00000000000000000000000000000000000000000000000000000000081526004016103e9906125fa565b610d5e565b600091505b8354610d84903390859073ffffffffffffffffffffffffffffffffffffffff1685611d2f565b610dba576040517f08c379a00000000000000000000000000000000000000000000000000000000081526004016103e99061269f565b6001840183905583546040517fa9059cbb00000000000000000000000000000000000000000000000000000000815273ffffffffffffffffffffffffffffffffffffffff9091169063a9059cbb90610e1890339089906004016124fe565b602060405180830381600087803b158015610e3257600080fd5b505af1158015610e46573d6000803e3d6000fd5b505050506040513d601f19601f82011682018060405250810190610e6a91906123e3565b50835460405133917f45892a46e6cef329bb642da6d69846d324db43d19008edc141ed82382eda1bee91610eb69173ffffffffffffffffffffffffffffffffffffffff169089906124fe565b60405180910390a25050505050565b60005473ffffffffffffffffffffffffffffffffffffffff163314610f16576040517f08c379a00000000000000000000000000000000000000000000000000000000081526004016103e9906126d6565b600655565b60005473ffffffffffffffffffffffffffffffffffffffff163314610f6c576040517f08c379a00000000000000000000000000000000000000000000000000000000081526004016103e9906126d6565b6040517fa9059cbb00000000000000000000000000000000000000000000000000000000815273ffffffffffffffffffffffffffffffffffffffff84169063a9059cbb90610fc090849086906004016124fe565b602060405180830381600087803b158015610fda57600080fd5b505af1158015610fee573d6000803e3d6000fd5b505050506040513d601f19601f8201168201806040525081019061101291906123e3565b50505050565b6301e1338081565b60015473ffffffffffffffffffffffffffffffffffffffff1681565b60005473ffffffffffffffffffffffffffffffffffffffff1681565b73ffffffffffffffffffffffffffffffffffffffff81166000908152600260205260408120600181015461109057600091505061084a565b73ffffffffffffffffffffffffffffffffffffffff8316600090815260036020526040812060018101549091901561075c57825482546110e99173ffffffffffffffffffffffffffffffffffffffff9081169116611921565b905073ffffffffffffffffffffffffffffffffffffffff8116611112576000935050505061084a565b61111c8582611b4f565b95945050505050565b6000811161115f576040517f08c379a00000000000000000000000000000000000000000000000000000000081526004016103e990612631565b6040517f23b872dd00000000000000000000000000000000000000000000000000000000815273ffffffffffffffffffffffffffffffffffffffff8316906323b872dd906111b5903390309086906004016124cd565b602060405180830381600087803b1580156111cf57600080fd5b505af11580156111e3573d6000803e3d6000fd5b505050506040513d601f19601f8201168201806040525081019061120791906123e3565b5033600090815260026020526040902060018101546112635780547fffffffffffffffffffffffff00000000000000000000000000000000000000001673ffffffffffffffffffffffffffffffffffffffff84161781556112b6565b805473ffffffffffffffffffffffffffffffffffffffff8481169116146112b6576040517f08c379a00000000000000000000000000000000000000000000000000000000081526004016103e9906127b2565b6001810180548301905560405133907ff1c0dd7e9b98bbff859029005ef89b127af049cd18df1a8d79f0b7e019911e56906106d190869086906124fe565b6000811161132e576040517f08c379a00000000000000000000000000000000000000000000000000000000081526004016103e990612631565b73ffffffffffffffffffffffffffffffffffffffff8216600090815260026020908152604080832060039092529091206001810154611399576040517f08c379a00000000000000000000000000000000000000000000000000000000081526004016103e990612744565b815481546000916113c39173ffffffffffffffffffffffffffffffffffffffff9182169116611921565b905073ffffffffffffffffffffffffffffffffffffffff8116611412576040517f08c379a00000000000000000000000000000000000000000000000000000000081526004016103e9906125fa565b61141c8582611f5e565b611452576040517f08c379a00000000000000000000000000000000000000000000000000000000081526004016103e99061277b565b61145b85611884565b60008260010154851161146e5784611474565b82600101545b83546040517f23b872dd00000000000000000000000000000000000000000000000000000000815291925073ffffffffffffffffffffffffffffffffffffffff16906323b872dd906114ce903390309086906004016124cd565b602060405180830381600087803b1580156114e857600080fd5b505af11580156114fc573d6000803e3d6000fd5b505050506040513d601f19601f8201168201806040525081019061152091906123e3565b508354835460009161154d9173ffffffffffffffffffffffffffffffffffffffff91821691168486611fd5565b600186015490915060646005830204908183019081111561156f575060018601545b60018087018054869003905587018054829003905586546040517fa9059cbb00000000000000000000000000000000000000000000000000000000815273ffffffffffffffffffffffffffffffffffffffff9091169063a9059cbb906115db90339085906004016124fe565b602060405180830381600087803b1580156115f557600080fd5b505af1158015611609573d6000803e3d6000fd5b505050506040513d601f19601f8201168201806040525081019061162d91906123e3565b508873ffffffffffffffffffffffffffffffffffffffff163373ffffffffffffffffffffffffffffffffffffffff167f1f0c6615429d1cdae0dfa233abf91d3b31cdbdd82c8081389832a61e1072f1ea868460405161168d929190612829565b60405180910390a3505050505050505050565b670de0b6b3a764000081565b60005473ffffffffffffffffffffffffffffffffffffffff1633146116fd576040517f08c379a00000000000000000000000000000000000000000000000000000000081526004016103e9906126d6565b670de0b6b3a764000081111561173f576040517f08c379a00000000000000000000000000000000000000000000000000000000081526004016103e9906127e9565b600555565b6002602052600090815260409020805460019091015473ffffffffffffffffffffffffffffffffffffffff9091169082565b60045481565b73ffffffffffffffffffffffffffffffffffffffff811660009081526003602090815260408083206002909252822060018201546117c75750671bc16d674ec80000915061084a9050565b805482546000916117f19173ffffffffffffffffffffffffffffffffffffffff9182169116611921565b905073ffffffffffffffffffffffffffffffffffffffff811661181a576000935050505061084a565b60006118268683611b4f565b90508061183a57600094505050505061084a565b600454600185015490820290670de0b6b3a76400000280611864576000965050505050505061084a565b80670de0b6b3a764000083028161187757fe5b0498975050505050505050565b73ffffffffffffffffffffffffffffffffffffffff8116600090815260036020526040902060018101546118b8575061191e565b60038101544203806118cb57505061191e565b6000816006540290506000670de0b6b3a764000082856002015402816118ed57fe5b0484600201540190508360020154818560010154028161190957fe5b04600185015560028401555050426003909101555b50565b60015460009073ffffffffffffffffffffffffffffffffffffffff1661194957506000611b49565b60408051602081019091526101f4815260005b6001811015611b42576000600160009054906101000a900473ffffffffffffffffffffffffffffffffffffffff1673ffffffffffffffffffffffffffffffffffffffff16631698ee8287878686600181106119b357fe5b60200201516040518463ffffffff1660e01b81526004016119d693929190612524565b60206040518083038186803b1580156119ee57600080fd5b505afa158015611a02573d6000803e3d6000fd5b505050506040513d601f19601f82011682018060405250810190611a26919061235b565b905073ffffffffffffffffffffffffffffffffffffffff811615611a4e579250611b49915050565b6000600160009054906101000a900473ffffffffffffffffffffffffffffffffffffffff1673ffffffffffffffffffffffffffffffffffffffff16631698ee828789878760018110611a9c57fe5b60200201516040518463ffffffff1660e01b8152600401611abf93929190612524565b60206040518083038186803b158015611ad757600080fd5b505afa158015611aeb573d6000803e3d6000fd5b505050506040513d601f19601f82011682018060405250810190611b0f919061235b565b905073ffffffffffffffffffffffffffffffffffffffff811615611b38579350611b4992505050565b505060010161195c565b5060009150505b92915050565b73ffffffffffffffffffffffffffffffffffffffff821660009081526002602052604081206001810154611b87576000915050611b49565b600083905060008173ffffffffffffffffffffffffffffffffffffffff16630dfe16816040518163ffffffff1660e01b815260040160206040518083038186803b158015611bd457600080fd5b505afa158015611be8573d6000803e3d6000fd5b505050506040513d601f19601f82011682018060405250810190611c0c919061235b565b905060008273ffffffffffffffffffffffffffffffffffffffff1663d21220a76040518163ffffffff1660e01b815260040160206040518083038186803b158015611c5657600080fd5b505afa158015611c6a573d6000803e3d6000fd5b505050506040513d601f19601f82011682018060405250810190611c8e919061235b565b90506000611c9b8761223f565b855490915073ffffffffffffffffffffffffffffffffffffffff84811691161415611ce457670de0b6b3a76400008186600101540281611cd757fe5b0495505050505050611b49565b845473ffffffffffffffffffffffffffffffffffffffff83811691161415611d2157670de0b6b3a764000085600101540295505050505050611b49565b600095505050505050611b49565b73ffffffffffffffffffffffffffffffffffffffff841660009081526003602052604081206001810154611d67576001915050611f56565b73ffffffffffffffffffffffffffffffffffffffff8316611d8c576001915050611f56565b600083905060008173ffffffffffffffffffffffffffffffffffffffff16630dfe16816040518163ffffffff1660e01b815260040160206040518083038186803b158015611dd957600080fd5b505afa158015611ded573d6000803e3d6000fd5b505050506040513d601f19601f82011682018060405250810190611e11919061235b565b905060008273ffffffffffffffffffffffffffffffffffffffff1663d21220a76040518163ffffffff1660e01b815260040160206040518083038186803b158015611e5b57600080fd5b505afa158015611e6f573d6000803e3d6000fd5b505050506040513d601f19601f82011682018060405250810190611e93919061235b565b90506000611ea08761223f565b905060008373ffffffffffffffffffffffffffffffffffffffff168973ffffffffffffffffffffffffffffffffffffffff1614611f22578273ffffffffffffffffffffffffffffffffffffffff168973ffffffffffffffffffffffffffffffffffffffff1614611f11576000611f1d565b670de0b6b3a76400008a025b611f30565b670de0b6b3a76400008a8302045b6001870154600454919250670de0b6b3a764000090810291830204101596505050505050505b949350505050565b73ffffffffffffffffffffffffffffffffffffffff821660009081526003602052604081206001810154611f96576000915050611b49565b6000611fa28585611b4f565b905080611fb457600092505050611b49565b60019190910154600554670de0b6b3a7640000918202920204109392505050565b60008082905060008173ffffffffffffffffffffffffffffffffffffffff16630dfe16816040518163ffffffff1660e01b815260040160206040518083038186803b15801561202357600080fd5b505afa158015612037573d6000803e3d6000fd5b505050506040513d601f19601f8201168201806040525081019061205b919061235b565b905060008273ffffffffffffffffffffffffffffffffffffffff1663d21220a76040518163ffffffff1660e01b815260040160206040518083038186803b1580156120a557600080fd5b505afa1580156120b9573d6000803e3d6000fd5b505050506040513d601f19601f820116820180604052508101906120dd919061235b565b905060006120ea8661223f565b90508273ffffffffffffffffffffffffffffffffffffffff168973ffffffffffffffffffffffffffffffffffffffff1614801561215257508173ffffffffffffffffffffffffffffffffffffffff168873ffffffffffffffffffffffffffffffffffffffff16145b156121765780670de0b6b3a764000088028161216a57fe5b04945050505050611f56565b8173ffffffffffffffffffffffffffffffffffffffff168973ffffffffffffffffffffffffffffffffffffffff161480156121dc57508273ffffffffffffffffffffffffffffffffffffffff168873ffffffffffffffffffffffffffffffffffffffff16145b156121f257670de0b6b3a764000087820261216a565b8773ffffffffffffffffffffffffffffffffffffffff168973ffffffffffffffffffffffffffffffffffffffff1614156122325786945050505050611f56565b6000945050505050611f56565b60008082905060008173ffffffffffffffffffffffffffffffffffffffff16633850c7bd6040518163ffffffff1660e01b815260040160e06040518083038186803b15801561228d57600080fd5b505afa1580156122a1573d6000803e3d6000fd5b505050506040513d601f19601f820116820180604052508101906122c591906123fd565b5050780100000000000000000000000000000000000000000000000073ffffffffffffffffffffffffffffffffffffffff959095168002670de0b6b3a7640000029490940498975050505050505050565b8051801515811461084a57600080fd5b805161ffff8116811461084a57600080fd5b600060208284031215612349578081fd5b813561235481612837565b9392505050565b60006020828403121561236c578081fd5b815161235481612837565b60008060408385031215612389578081fd5b823561239481612837565b946020939093013593505050565b6000806000606084860312156123b6578081fd5b83356123c181612837565b92506020840135915060408401356123d881612837565b809150509250925092565b6000602082840312156123f4578081fd5b61235482612316565b600080600080600080600060e0888a031215612417578283fd5b875161242281612837565b8097505060208801518060020b8114612439578384fd5b955061244760408901612326565b945061245560608901612326565b935061246360808901612326565b925060a088015160ff81168114612478578283fd5b915061248660c08901612316565b905092959891949750929550565b6000602082840312156124a5578081fd5b5035919050565b73ffffffffffffffffffffffffffffffffffffffff91909116815260200190565b73ffffffffffffffffffffffffffffffffffffffff9384168152919092166020820152604081019190915260600190565b73ffffffffffffffffffffffffffffffffffffffff929092168252602082015260400190565b73ffffffffffffffffffffffffffffffffffffffff938416815291909216602082015262ffffff909116604082015260600190565b73ffffffffffffffffffffffffffffffffffffffff94909416845260208401929092526040830152606082015260800190565b6020808252600d908201527f6e6f20636f6c6c61746572616c00000000000000000000000000000000000000604082015260600190565b6020808252600c908201527f696e73756666696369656e740000000000000000000000000000000000000000604082015260600190565b60208082526007908201527f6e6f20706f6f6c00000000000000000000000000000000000000000000000000604082015260600190565b60208082526004908201527f7a65726f00000000000000000000000000000000000000000000000000000000604082015260600190565b60208082526003908201527f6c74760000000000000000000000000000000000000000000000000000000000604082015260600190565b60208082526013908201527f756e646572636f6c6c61746572616c697a656400000000000000000000000000604082015260600190565b6020808252600a908201527f6f6e6c79206f776e657200000000000000000000000000000000000000000000604082015260600190565b60208082526009908201527f6469666620646562740000000000000000000000000000000000000000000000604082015260600190565b60208082526007908201527f6e6f206465627400000000000000000000000000000000000000000000000000604082015260600190565b60208082526007908201527f6e6f74206c697100000000000000000000000000000000000000000000000000604082015260600190565b6020808252600a908201527f6469666620746f6b656e00000000000000000000000000000000000000000000604082015260600190565b60208082526007908201527f696e76616c696400000000000000000000000000000000000000000000000000604082015260600190565b90815260200190565b918252602082015260400190565b73ffffffffffffffffffffffffffffffffffffffff8116811461191e57600080fdfea164736f6c6343000706000a",
  "linkReferences": {},
  "deployedLinkReferences": {}
}