{
  "_format": "hh-sol-artifact-1",
  "contractName": "LimitOrderExecutor",
  "sourceName": "contracts/LimitOrder.sol",
  "abi": [
    {
      "inputs": [
        {
          "internalType": "address",
          "name": "_router",
          "type": "address"
        }
      ],
      "stateMutability": "nonpayable",
      "type": "constructor"
    },
    {
      "anonymous": false,
      "inputs": [
        {
          "indexed": true,
          "internalType": "uint256",
          "name": "orderId",
          "type": "uint256"
        }
      ],
      "name": "OrderCancelled",
      "type": "event"
    },
    {
      "anonymous": false,
      "inputs": [
        {
          "indexed": true,
          "internalType": "uint256",
          "name": "orderId",
          "type": "uint256"
        },
        {
          "indexed": true,
          "internalType": "address",
          "name": "maker",
          "type": "address"
        },
        {
          "indexed": false,
          "internalType": "uint256",
          "name": "amountIn",
          "type": "uint256"
        },
        {
          "indexed": false,
          "internalType": "enum LimitOrderExecutor.OrderType",
          "name": "orderType",
          "type": "uint8"
        }
      ],
      "name": "OrderCreated",
      "type": "event"
    },
    {
      "anonymous": false,
      "inputs": [
        {
          "indexed": true,
          "internalType": "uint256",
          "name": "orderId",
          "type": "uint256"
        },
        {
          "indexed": false,
          "internalType": "uint256",
          "name": "amountOut",
          "type": "uint256"
        }
      ],
      "name": "OrderExecuted",
      "type": "event"
    },
    {
      "inputs": [
        {
          "internalType": "uint256",
          "name": "orderId",
          "type": "uint256"
        }
      ],
      "name": "cancelOrder",
      "outputs": [],
      "stateMutability": "nonpayable",
      "type": "function"
    },
    {
      "inputs": [
        {
          "internalType": "address",
          "name": "tokenIn",
          "type": "address"
        },
        {
          "internalType": "address",
          "name": "tokenOut",
          "type": "address"
        },
        {
          "internalType": "uint24",
          "name": "poolFee",
          "type": "uint24"
        },
        {
          "internalType": "address",
          "name": "pool",
          "type": "address"
        },
        {
          "internalType": "uint256",
          "name": "amountIn",
          "type": "uint256"
        },
        {
          "internalType": "uint256",
          "name": "amountOutMin",
          "type": "uint256"
        },
        {
          "internalType": "uint160",
          "name": "targetSqrtPriceX96",
          "type": "uint160"
        },
        {
          "internalType": "bool",
          "name": "triggerAbove",
          "type": "bool"
        },
        {
          "internalType": "uint256",
          "name": "ttlSeconds",
          "type": "uint256"
        },
        {
          "internalType": "enum LimitOrderExecutor.OrderType",
          "name": "orderType",
          "type": "uint8"
        }
      ],
      "name": "depositAndCreateOrder",
      "outputs": [
        {
          "internalType": "uint256",
          "name": "orderId",
          "type": "uint256"
        }
      ],
      "stateMutability": "nonpayable",
      "type": "function"
    },
    {
      "inputs": [
        {
          "internalType": "uint256",
          "name": "orderId",
          "type": "uint256"
        }
      ],
      "name": "executeOrder",
      "outputs": [],
      "stateMutability": "nonpayable",
      "type": "function"
    },
    {
      "inputs": [
        {
          "internalType": "uint256",
          "name": "orderId",
          "type": "uint256"
        }
      ],
      "name": "getOrder",
      "outputs": [
        {
          "components": [
            {
              "internalType": "address",
              "name": "maker",
              "type": "address"
            },
            {
              "internalType": "address",
              "name": "tokenIn",
              "type": "address"
            },
            {
              "internalType": "address",
              "name": "tokenOut",
              "type": "address"
            },
            {
              "internalType": "uint24",
              "name": "poolFee",
              "type": "uint24"
            },
            {
              "internalType": "address",
              "name": "pool",
              "type": "address"
            },
            {
              "internalType": "uint256",
              "name": "amountIn",
              "type": "uint256"
            },
            {
              "internalType": "uint256",
              "name": "amountOutMin",
              "type": "uint256"
            },
            {
              "internalType": "uint160",
              "name": "targetSqrtPriceX96",
              "type": "uint160"
            },
            {
              "internalType": "bool",
              "name": "triggerAbove",
              "type": "bool"
            },
            {
              "internalType": "uint256",
              "name": "expiry",
              "type": "uint256"
            },
            {
              "internalType": "bool",
              "name": "filled",
              "type": "bool"
            },
            {
              "internalType": "bool",
              "name": "cancelled",
              "type": "bool"
            },
            {
              "internalType": "enum LimitOrderExecutor.OrderType",
              "name": "orderType",
              "type": "uint8"
            }
          ],
          "internalType": "struct LimitOrderExecutor.Order",
          "name": "",
          "type": "tuple"
        }
      ],
      "stateMutability": "view",
      "type": "function"
    },
    {
      "inputs": [
        {
          "internalType": "address",
          "name": "user",
          "type": "address"
        }
      ],
      "name": "getUserOrders",
      "outputs": [
        {
          "components": [
            {
              "internalType": "address",
              "name": "maker",
              "type": "address"
            },
            {
              "internalType": "address",
              "name": "tokenIn",
              "type": "address"
            },
            {
              "internalType": "address",
              "name": "tokenOut",
              "type": "address"
            },
            {
              "internalType": "uint24",
              "name": "poolFee",
              "type": "uint24"
            },
            {
              "internalType": "address",
              "name": "pool",
              "type": "address"
            },
            {
              "internalType": "uint256",
              "name": "amountIn",
              "type": "uint256"
            },
            {
              "internalType": "uint256",
              "name": "amountOutMin",
              "type": "uint256"
            },
            {
              "internalType": "uint160",
              "name": "targetSqrtPriceX96",
              "type": "uint160"
            },
            {
              "internalType": "bool",
              "name": "triggerAbove",
              "type": "bool"
            },
            {
              "internalType": "uint256",
              "name": "expiry",
              "type": "uint256"
            },
            {
              "internalType": "bool",
              "name": "filled",
              "type": "bool"
            },
            {
              "internalType": "bool",
              "name": "cancelled",
              "type": "bool"
            },
            {
              "internalType": "enum LimitOrderExecutor.OrderType",
              "name": "orderType",
              "type": "uint8"
            }
          ],
          "internalType": "struct LimitOrderExecutor.Order[]",
          "name": "",
          "type": "tuple[]"
        }
      ],
      "stateMutability": "view",
      "type": "function"
    },
    {
      "inputs": [],
      "name": "nextOrderId",
      "outputs": [
        {
          "internalType": "uint256",
          "name": "",
          "type": "uint256"
        }
      ],
      "stateMutability": "view",
      "type": "function"
    },
    {
      "inputs": [],
      "name": "owner",
      "outputs": [
        {
          "internalType": "address",
          "name": "",
          "type": "address"
        }
      ],
      "stateMutability": "view",
      "type": "function"
    },
    {
      "inputs": [
        {
          "internalType": "address",
          "name": "token",
          "type": "address"
        },
        {
          "internalType": "address",
          "name": "to",
          "type": "address"
        },
        {
          "internalType": "uint256",
          "name": "amount",
          "type": "uint256"
        }
      ],
      "name": "ownerWithdraw",
      "outputs": [],
      "stateMutability": "nonpayable",
      "type": "function"
    },
    {
      "inputs": [],
      "name": "router",
      "outputs": [
        {
          "internalType": "contract ISwapRouter",
          "name": "",
          "type": "address"
        }
      ],
      "stateMutability": "view",
      "type": "function"
    }
  ],
  "bytecode": "0x60a060405234801561001057600080fd5b506040516117a33803806117a383398101604081905261002f9161005d565b60008054336001600160a01b031990911617905560601b6001600160601b031916608052600160035561008b565b60006020828403121561006e578081fd5b81516001600160a01b0381168114610084578182fd5b9392505050565b60805160601c6116f16100b26000398061083652806109615280610ffd52506116f16000f3fe608060405234801561001057600080fd5b50600436106100a35760003560e01c80638da5cb5b11610076578063d09ef2411161005b578063d09ef24114610136578063ea8c4d5614610156578063f887ea4014610169576100a3565b80638da5cb5b1461010e57806394f6113414610123576100a3565b80632a58b330146100a85780632bcaa0e2146100c6578063514fcac7146100db57806363c69f08146100ee575b600080fd5b6100b0610171565b6040516100bd9190611694565b60405180910390f35b6100d96100d4366004611172565b610177565b005b6100d96100e93660046111ce565b6102b2565b6101016100fc366004611098565b6104a1565b6040516100bd919061138e565b6101166106c7565b6040516100bd9190611316565b6100d96101313660046111ce565b6106e3565b6101496101443660046111ce565b610a25565b6040516100bd919061167f565b6100b06101643660046110bb565b610b3d565b610116610ffb565b60035481565b60005473ffffffffffffffffffffffffffffffffffffffff1633146101d1576040517f08c379a00000000000000000000000000000000000000000000000000000000081526004016101c890611527565b60405180910390fd5b6040517fa9059cbb00000000000000000000000000000000000000000000000000000000815273ffffffffffffffffffffffffffffffffffffffff84169063a9059cbb906102259085908590600401611368565b602060405180830381600087803b15801561023f57600080fd5b505af1158015610253573d6000803e3d6000fd5b505050506040513d601f19601f8201168201806040525081019061027791906111b2565b6102ad576040517f08c379a00000000000000000000000000000000000000000000000000000000081526004016101c890611595565b505050565b6000818152600160205260409020805473ffffffffffffffffffffffffffffffffffffffff163314610310576040517f08c379a00000000000000000000000000000000000000000000000000000000081526004016101c890611414565b600881015460ff161561034f576040517f08c379a00000000000000000000000000000000000000000000000000000000081526004016101c89061155e565b6008810154610100900460ff1615610393576040517f08c379a00000000000000000000000000000000000000000000000000000000081526004016101c8906113dd565b6008810180547fffffffffffffffffffffffffffffffffffffffffffffffffffffffffffff00ff1661010017905560018101546004808301546040517fa9059cbb00000000000000000000000000000000000000000000000000000000815273ffffffffffffffffffffffffffffffffffffffff9093169263a9059cbb9261041f923392909101611368565b602060405180830381600087803b15801561043957600080fd5b505af115801561044d573d6000803e3d6000fd5b505050506040513d601f19601f8201168201806040525081019061047191906111b2565b5060405182907f61b9399f2f0f32ca39ce8d7be32caed5ec22fe07a6daba3a467ed479ec60658290600090a25050565b73ffffffffffffffffffffffffffffffffffffffff8116600090815260026020908152604080832080548251818502810185019093528083526060949383018282801561050d57602002820191906000526020600020905b8154815260200190600101908083116104f9575b505050505090506000815167ffffffffffffffff8111801561052e57600080fd5b5060405190808252806020026020018201604052801561056857816020015b61055561101f565b81526020019060019003908161054d5790505b50905060005b82518110156106bd576001600084838151811061058757fe5b602090810291909101810151825281810192909252604090810160002081516101a081018352815473ffffffffffffffffffffffffffffffffffffffff908116825260018084015482169583019590955260028301548082169483019490945262ffffff7401000000000000000000000000000000000000000094859004166060830152600383015481166080830152600483015460a0830152600583015460c0830152600683015490811660e083015260ff9390048316151561010080830191909152600783015461012083015260088301548085161515610140840152908104841615156101608301529093919261018085019262010000909204169081111561068f57fe5b600181111561069a57fe5b815250508282815181106106aa57fe5b602090810291909101015260010161056e565b509150505b919050565b60005473ffffffffffffffffffffffffffffffffffffffff1681565b6000818152600160205260409020600881015460ff1615610730576040517f08c379a00000000000000000000000000000000000000000000000000000000081526004016101c89061155e565b6008810154610100900460ff1615610774576040517f08c379a00000000000000000000000000000000000000000000000000000000081526004016101c8906114f0565b80600701544211156107b2576040517f08c379a00000000000000000000000000000000000000000000000000000000081526004016101c89061144b565b6008810180547fffffffffffffffffffffffffffffffffffffffffffffffffffffffffffffff001660019081179091558101546004808301546040517f095ea7b300000000000000000000000000000000000000000000000000000000815273ffffffffffffffffffffffffffffffffffffffff9093169263095ea7b39261085e927f000000000000000000000000000000000000000000000000000000000000000092909101611368565b602060405180830381600087803b15801561087857600080fd5b505af115801561088c573d6000803e3d6000fd5b505050506040513d601f19601f820116820180604052508101906108b091906111b2565b506040805161010081018252600183015473ffffffffffffffffffffffffffffffffffffffff90811682526002840154808216602084015274010000000000000000000000000000000000000000900462ffffff16828401528354811660608301524261025801608083015260048085015460a0840152600585015460c0840152600060e0840181905293517f414bf3890000000000000000000000000000000000000000000000000000000081527f00000000000000000000000000000000000000000000000000000000000000009092169263414bf389926109949201611603565b602060405180830381600087803b1580156109ae57600080fd5b505af11580156109c2573d6000803e3d6000fd5b505050506040513d601f19601f820116820180604052508101906109e691906111e6565b9050827f9947370f1e808dd40de986fca744d8715d4d7aa575359f77a7bdeeb887f590ea82604051610a189190611694565b60405180910390a2505050565b610a2d61101f565b60008281526001602081815260409283902083516101a081018552815473ffffffffffffffffffffffffffffffffffffffff908116825282850154811693820193909352600282015480841695820195909552740100000000000000000000000000000000000000009485900462ffffff166060820152600382015483166080820152600482015460a0820152600582015460c0820152600682015492831660e08201529390910460ff90811615156101008086019190915260078301546101208601526008830154808316151561014087015290810482161515610160860152919261018085019262010000900490911690811115610b2957fe5b6001811115610b3457fe5b90525092915050565b6000808711610b78576040517f08c379a00000000000000000000000000000000000000000000000000000000081526004016101c8906115cc565b600083118015610b8b575062278d008311155b610bc1576040517f08c379a00000000000000000000000000000000000000000000000000000000081526004016101c890611482565b6040517f23b872dd00000000000000000000000000000000000000000000000000000000815260009073ffffffffffffffffffffffffffffffffffffffff8d16906323b872dd90610c1a90339030908d90600401611337565b602060405180830381600087803b158015610c3457600080fd5b505af1158015610c48573d6000803e3d6000fd5b505050506040513d601f19601f82011682018060405250810190610c6c91906111b2565b905080610ca5576040517f08c379a00000000000000000000000000000000000000000000000000000000081526004016101c8906114b9565b60036000815480929190600101919050559150604051806101a001604052803373ffffffffffffffffffffffffffffffffffffffff1681526020018d73ffffffffffffffffffffffffffffffffffffffff1681526020018c73ffffffffffffffffffffffffffffffffffffffff1681526020018b62ffffff1681526020018a73ffffffffffffffffffffffffffffffffffffffff1681526020018981526020018881526020018773ffffffffffffffffffffffffffffffffffffffff16815260200186151581526020018542018152602001600015158152602001600015158152602001846001811115610d9557fe5b9052600083815260016020818152604092839020845181547fffffffffffffffffffffffff000000000000000000000000000000000000000090811673ffffffffffffffffffffffffffffffffffffffff9283161783559286015182850180548516918316919091179055938501516002820180546060880151908516928716929092177fffffffffffffffffff000000ffffffffffffffffffffffffffffffffffffffff167401000000000000000000000000000000000000000062ffffff90931683021790556080860151600383018054851691871691909117905560a0860151600483015560c0860151600583015560e0860151600683018054610100808a01519190961692909716919091177fffffffffffffffffffffff00ffffffffffffffffffffffffffffffffffffffff169515159091029490941790935561012084015160078401556101408401516008840180546101608701517fffffffffffffffffffffffffffffffffffffffffffffffffffffffffffffff00909116921515929092177fffffffffffffffffffffffffffffffffffffffffffffffffffffffffffff00ff1691151590920217808255610180850151927fffffffffffffffffffffffffffffffffffffffffffffffffffffffffff00ffff9091169062010000908490811115610f8457fe5b021790555050336000818152600260209081526040808320805460018101825590845291909220018590555190915083907f4a7c6b1e984c5ac140f100a4898dce117573b0fe14a829675781be4f938a306590610fe4908c90889061169d565b60405180910390a3509a9950505050505050505050565b7f000000000000000000000000000000000000000000000000000000000000000081565b604080516101a081018252600080825260208201819052918101829052606081018290526080810182905260a0810182905260c0810182905260e0810182905261010081018290526101208101829052610140810182905261016081018290529061018082015290565b8035600281106106c257600080fd5b6000602082840312156110a9578081fd5b81356110b4816116b1565b9392505050565b6000806000806000806000806000806101408b8d0312156110da578586fd5b8a356110e5816116b1565b995060208b01356110f5816116b1565b985060408b013562ffffff8116811461110c578687fd5b975060608b013561111c816116b1565b965060808b0135955060a08b0135945060c08b013561113a816116b1565b935060e08b013561114a816116d6565b92506101008b013591506111616101208c01611089565b90509295989b9194979a5092959850565b600080600060608486031215611186578283fd5b8335611191816116b1565b925060208401356111a1816116b1565b929592945050506040919091013590565b6000602082840312156111c3578081fd5b81516110b4816116d6565b6000602082840312156111df578081fd5b5035919050565b6000602082840312156111f7578081fd5b5051919050565b73ffffffffffffffffffffffffffffffffffffffff169052565b15159052565b6002811061122857fe5b9052565b6112378282516111fe565b602081015161124960208401826111fe565b50604081015161125c60408401826111fe565b50606081015161126f606084018261130d565b50608081015161128260808401826111fe565b5060a081015160a083015260c081015160c083015260e08101516112a960e08401826111fe565b50610100808201516112bd82850182611218565b50506101208181015190830152610140808201516112dd82850182611218565b5050610160808201516112f282850182611218565b5050610180808201516113078285018261121e565b50505050565b62ffffff169052565b73ffffffffffffffffffffffffffffffffffffffff91909116815260200190565b73ffffffffffffffffffffffffffffffffffffffff9384168152919092166020820152604081019190915260600190565b73ffffffffffffffffffffffffffffffffffffffff929092168252602082015260400190565b6020808252825182820181905260009190848201906040850190845b818110156113d1576113bd83855161122c565b928401926101a092909201916001016113aa565b50909695505050505050565b60208082526011908201527f616c72656164792063616e63656c6c6564000000000000000000000000000000604082015260600190565b60208082526009908201527f6e6f74206d616b65720000000000000000000000000000000000000000000000604082015260600190565b60208082526007908201527f6578706972656400000000000000000000000000000000000000000000000000604082015260600190565b6020808252600b908201527f696e76616c69642054544c000000000000000000000000000000000000000000604082015260600190565b60208082526013908201527f7472616e7366657246726f6d206661696c656400000000000000000000000000604082015260600190565b60208082526009908201527f63616e63656c6c65640000000000000000000000000000000000000000000000604082015260600190565b60208082526009908201527f6e6f74206f776e65720000000000000000000000000000000000000000000000604082015260600190565b6020808252600e908201527f616c72656164792066696c6c6564000000000000000000000000000000000000604082015260600190565b6020808252600f908201527f7769746864726177206661696c65640000000000000000000000000000000000604082015260600190565b6020808252600c908201527f616d6f756e74496e203d20300000000000000000000000000000000000000000604082015260600190565b60006101008201905073ffffffffffffffffffffffffffffffffffffffff80845116835280602085015116602084015262ffffff60408501511660408401528060608501511660608401526080840151608084015260a084015160a084015260c084015160c08401528060e08501511660e08401525092915050565b6101a0810161168e828461122c565b92915050565b90815260200190565b828152604081016110b4602083018461121e565b73ffffffffffffffffffffffffffffffffffffffff811681146116d357600080fd5b50565b80151581146116d357600080fdfea164736f6c6343000706000a",
  "linkReferences": {},
  "deployedLinkReferences": {}
}