{
    "_format": "hh-sol-artifact-1",
    "contractName": "DeFiInsurance",
    "sourceName": "contracts/Insurance/DeFiInsurance.sol",
    "abi": [
        {
            "inputs": [
                {
                    "internalType": "address",
                    "name": "_premiumToken",
                    "type": "address"
                },
                {
                    "internalType": "address",
                    "name": "_payoutToken",
                    "type": "address"
                },
                {
                    "internalType": "address",
                    "name": "_uniswapFactory",
                    "type": "address"
                }
            ],
            "stateMutability": "nonpayable",
            "type": "constructor"
        },
        {
            "anonymous": false,
            "inputs": [
                {
                    "indexed": true,
                    "internalType": "uint256",
                    "name": "policyId",
                    "type": "uint256"
                },
                {
                    "indexed": true,
                    "internalType": "address",
                    "name": "holder",
                    "type": "address"
                },
                {
                    "indexed": false,
                    "internalType": "uint256",
                    "name": "currentRatio",
                    "type": "uint256"
                },
                {
                    "indexed": false,
                    "internalType": "bool",
                    "name": "approved",
                    "type": "bool"
                }
            ],
            "name": "ClaimSubmitted",
            "type": "event"
        },
        {
            "anonymous": false,
            "inputs": [
                {
                    "indexed": true,
                    "internalType": "address",
                    "name": "underwriter",
                    "type": "address"
                },
                {
                    "indexed": false,
                    "internalType": "uint256",
                    "name": "amount",
                    "type": "uint256"
                }
            ],
            "name": "LiquidityDeposited",
            "type": "event"
        },
        {
            "anonymous": false,
            "inputs": [
                {
                    "indexed": true,
                    "internalType": "address",
                    "name": "underwriter",
                    "type": "address"
                },
                {
                    "indexed": false,
                    "internalType": "uint256",
                    "name": "amount",
                    "type": "uint256"
                }
            ],
            "name": "LiquidityWithdrawn",
            "type": "event"
        },
        {
            "anonymous": false,
            "inputs": [
                {
                    "indexed": true,
                    "internalType": "address",
                    "name": "previousOwner",
                    "type": "address"
                },
                {
                    "indexed": true,
                    "internalType": "address",
                    "name": "newOwner",
                    "type": "address"
                }
            ],
            "name": "OwnershipTransferred",
            "type": "event"
        },
        {
            "anonymous": false,
            "inputs": [
                {
                    "indexed": false,
                    "internalType": "uint256",
                    "name": "premiumRateBps",
                    "type": "uint256"
                },
                {
                    "indexed": false,
                    "internalType": "uint256",
                    "name": "underwriterShareBps",
                    "type": "uint256"
                }
            ],
            "name": "ParametersUpdated",
            "type": "event"
        },
        {
            "anonymous": false,
            "inputs": [
                {
                    "indexed": true,
                    "internalType": "uint256",
                    "name": "policyId",
                    "type": "uint256"
                },
                {
                    "indexed": true,
                    "internalType": "address",
                    "name": "holder",
                    "type": "address"
                },
                {
                    "indexed": false,
                    "internalType": "uint256",
                    "name": "amount",
                    "type": "uint256"
                }
            ],
            "name": "PayoutExecuted",
            "type": "event"
        },
        {
            "anonymous": false,
            "inputs": [
                {
                    "indexed": true,
                    "internalType": "uint256",
                    "name": "policyId",
                    "type": "uint256"
                },
                {
                    "indexed": true,
                    "internalType": "address",
                    "name": "holder",
                    "type": "address"
                },
                {
                    "indexed": false,
                    "internalType": "address",
                    "name": "assetToken",
                    "type": "address"
                },
                {
                    "indexed": false,
                    "internalType": "address",
                    "name": "quoteToken",
                    "type": "address"
                },
                {
                    "indexed": false,
                    "internalType": "uint256",
                    "name": "notional",
                    "type": "uint256"
                },
                {
                    "indexed": false,
                    "internalType": "uint256",
                    "name": "premium",
                    "type": "uint256"
                },
                {
                    "indexed": false,
                    "internalType": "uint256",
                    "name": "purchaseRatio",
                    "type": "uint256"
                },
                {
                    "indexed": false,
                    "internalType": "uint256",
                    "name": "expiryTime",
                    "type": "uint256"
                }
            ],
            "name": "PolicyPurchased",
            "type": "event"
        },
        {
            "anonymous": false,
            "inputs": [
                {
                    "indexed": true,
                    "internalType": "address",
                    "name": "tokenA",
                    "type": "address"
                },
                {
                    "indexed": true,
                    "internalType": "address",
                    "name": "tokenB",
                    "type": "address"
                },
                {
                    "indexed": false,
                    "internalType": "uint24",
                    "name": "fee",
                    "type": "uint24"
                },
                {
                    "indexed": false,
                    "internalType": "address",
                    "name": "poolAddress",
                    "type": "address"
                }
            ],
            "name": "PoolAdded",
            "type": "event"
        },
        {
            "anonymous": false,
            "inputs": [
                {
                    "indexed": true,
                    "internalType": "address",
                    "name": "tokenA",
                    "type": "address"
                },
                {
                    "indexed": true,
                    "internalType": "address",
                    "name": "tokenB",
                    "type": "address"
                },
                {
                    "indexed": false,
                    "internalType": "uint24",
                    "name": "fee",
                    "type": "uint24"
                }
            ],
            "name": "PoolRemoved",
            "type": "event"
        },
        {
            "inputs": [
                {
                    "internalType": "address",
                    "name": "_tokenA",
                    "type": "address"
                },
                {
                    "internalType": "address",
                    "name": "_tokenB",
                    "type": "address"
                },
                {
                    "internalType": "uint24",
                    "name": "_fee",
                    "type": "uint24"
                }
            ],
            "name": "addPool",
            "outputs": [],
            "stateMutability": "nonpayable",
            "type": "function"
        },
        {
            "inputs": [
                {
                    "internalType": "address",
                    "name": "_underwriter",
                    "type": "address"
                }
            ],
            "name": "calculateEarnedPremiums",
            "outputs": [
                {
                    "internalType": "uint256",
                    "name": "",
                    "type": "uint256"
                }
            ],
            "stateMutability": "view",
            "type": "function"
        },
        {
            "inputs": [
                {
                    "internalType": "uint256",
                    "name": "_notional",
                    "type": "uint256"
                },
                {
                    "internalType": "uint256",
                    "name": "_actualDropBps",
                    "type": "uint256"
                },
                {
                    "internalType": "uint256",
                    "name": "_thresholdBps",
                    "type": "uint256"
                }
            ],
            "name": "calculatePayout",
            "outputs": [
                {
                    "internalType": "uint256",
                    "name": "",
                    "type": "uint256"
                }
            ],
            "stateMutability": "pure",
            "type": "function"
        },
        {
            "inputs": [
                {
                    "internalType": "uint256",
                    "name": "_notional",
                    "type": "uint256"
                },
                {
                    "internalType": "uint256",
                    "name": "_coverageDuration",
                    "type": "uint256"
                },
                {
                    "internalType": "uint256",
                    "name": "_thresholdPercentage",
                    "type": "uint256"
                }
            ],
            "name": "calculatePremium",
            "outputs": [
                {
                    "internalType": "uint256",
                    "name": "",
                    "type": "uint256"
                }
            ],
            "stateMutability": "view",
            "type": "function"
        },
        {
            "inputs": [
                {
                    "internalType": "uint256",
                    "name": "_purchaseRatio",
                    "type": "uint256"
                },
                {
                    "internalType": "uint256",
                    "name": "_currentRatio",
                    "type": "uint256"
                }
            ],
            "name": "calculatePriceDrop",
            "outputs": [
                {
                    "internalType": "uint256",
                    "name": "",
                    "type": "uint256"
                }
            ],
            "stateMutability": "pure",
            "type": "function"
        },
        {
            "inputs": [
                {
                    "internalType": "uint256",
                    "name": "_amount",
                    "type": "uint256"
                }
            ],
            "name": "depositLiquidity",
            "outputs": [],
            "stateMutability": "nonpayable",
            "type": "function"
        },
        {
            "inputs": [
                {
                    "internalType": "address",
                    "name": "_assetToken",
                    "type": "address"
                },
                {
                    "internalType": "address",
                    "name": "_quoteToken",
                    "type": "address"
                },
                {
                    "internalType": "uint24",
                    "name": "_fee",
                    "type": "uint24"
                }
            ],
            "name": "fetchPriceFromPool",
            "outputs": [
                {
                    "internalType": "uint256",
                    "name": "",
                    "type": "uint256"
                }
            ],
            "stateMutability": "view",
            "type": "function"
        },
        {
            "inputs": [
                {
                    "internalType": "address",
                    "name": "_tokenA",
                    "type": "address"
                },
                {
                    "internalType": "address",
                    "name": "_tokenB",
                    "type": "address"
                },
                {
                    "internalType": "uint24",
                    "name": "_fee",
                    "type": "uint24"
                }
            ],
            "name": "getCompletePoolInfo",
            "outputs": [
                {
                    "internalType": "address",
                    "name": "poolAddress",
                    "type": "address"
                },
                {
                    "internalType": "address",
                    "name": "token0",
                    "type": "address"
                },
                {
                    "internalType": "address",
                    "name": "token1",
                    "type": "address"
                },
                {
                    "internalType": "uint24",
                    "name": "fee",
                    "type": "uint24"
                },
                {
                    "internalType": "uint128",
                    "name": "liquidity",
                    "type": "uint128"
                },
                {
                    "internalType": "uint256",
                    "name": "currentRatio",
                    "type": "uint256"
                },
                {
                    "internalType": "bool",
                    "name": "isActive",
                    "type": "bool"
                }
            ],
            "stateMutability": "view",
            "type": "function"
        },
        {
            "inputs": [
                {
                    "internalType": "address",
                    "name": "_tokenA",
                    "type": "address"
                },
                {
                    "internalType": "address",
                    "name": "_tokenB",
                    "type": "address"
                },
                {
                    "internalType": "uint24",
                    "name": "_fee",
                    "type": "uint24"
                }
            ],
            "name": "getPairKey",
            "outputs": [
                {
                    "internalType": "bytes32",
                    "name": "",
                    "type": "bytes32"
                }
            ],
            "stateMutability": "pure",
            "type": "function"
        },
        {
            "inputs": [
                {
                    "internalType": "uint256",
                    "name": "_policyId",
                    "type": "uint256"
                }
            ],
            "name": "getPolicyDetails",
            "outputs": [
                {
                    "components": [
                        {
                            "internalType": "address",
                            "name": "holder",
                            "type": "address"
                        },
                        {
                            "internalType": "address",
                            "name": "assetToken",
                            "type": "address"
                        },
                        {
                            "internalType": "address",
                            "name": "quoteToken",
                            "type": "address"
                        },
                        {
                            "internalType": "uint256",
                            "name": "notional",
                            "type": "uint256"
                        },
                        {
                            "internalType": "uint256",
                            "name": "coverageDuration",
                            "type": "uint256"
                        },
                        {
                            "internalType": "uint256",
                            "name": "thresholdPercentage",
                            "type": "uint256"
                        },
                        {
                            "internalType": "uint256",
                            "name": "purchaseRatio",
                            "type": "uint256"
                        },
                        {
                            "internalType": "uint256",
                            "name": "premium",
                            "type": "uint256"
                        },
                        {
                            "internalType": "uint256",
                            "name": "purchaseTime",
                            "type": "uint256"
                        },
                        {
                            "internalType": "uint256",
                            "name": "expiryTime",
                            "type": "uint256"
                        },
                        {
                            "internalType": "bool",
                            "name": "claimed",
                            "type": "bool"
                        },
                        {
                            "internalType": "bool",
                            "name": "active",
                            "type": "bool"
                        }
                    ],
                    "internalType": "struct DeFiInsurance.Policy",
                    "name": "",
                    "type": "tuple"
                }
            ],
            "stateMutability": "view",
            "type": "function"
        },
        {
            "inputs": [
                {
                    "internalType": "address",
                    "name": "_tokenA",
                    "type": "address"
                },
                {
                    "internalType": "address",
                    "name": "_tokenB",
                    "type": "address"
                },
                {
                    "internalType": "uint24",
                    "name": "_fee",
                    "type": "uint24"
                }
            ],
            "name": "getPoolInfo",
            "outputs": [
                {
                    "components": [
                        {
                            "internalType": "address",
                            "name": "poolAddress",
                            "type": "address"
                        },
                        {
                            "internalType": "address",
                            "name": "token0",
                            "type": "address"
                        },
                        {
                            "internalType": "address",
                            "name": "token1",
                            "type": "address"
                        },
                        {
                            "internalType": "uint24",
                            "name": "fee",
                            "type": "uint24"
                        },
                        {
                            "internalType": "uint128",
                            "name": "liquidity",
                            "type": "uint128"
                        },
                        {
                            "internalType": "bool",
                            "name": "isActive",
                            "type": "bool"
                        }
                    ],
                    "internalType": "struct DeFiInsurance.PoolInfo",
                    "name": "",
                    "type": "tuple"
                }
            ],
            "stateMutability": "view",
            "type": "function"
        },
        {
            "inputs": [
                {
                    "internalType": "address",
                    "name": "_tokenA",
                    "type": "address"
                },
                {
                    "internalType": "address",
                    "name": "_tokenB",
                    "type": "address"
                },
                {
                    "internalType": "uint24",
                    "name": "_fee",
                    "type": "uint24"
                }
            ],
            "name": "getTokenRatio",
            "outputs": [
                {
                    "internalType": "uint256",
                    "name": "",
                    "type": "uint256"
                }
            ],
            "stateMutability": "view",
            "type": "function"
        },
        {
            "inputs": [
                {
                    "internalType": "address",
                    "name": "_underwriter",
                    "type": "address"
                }
            ],
            "name": "getUnderwriterInfo",
            "outputs": [
                {
                    "components": [
                        {
                            "internalType": "uint256",
                            "name": "depositedAmount",
                            "type": "uint256"
                        },
                        {
                            "internalType": "uint256",
                            "name": "premiumEarned",
                            "type": "uint256"
                        },
                        {
                            "internalType": "uint256",
                            "name": "lastDepositTime",
                            "type": "uint256"
                        }
                    ],
                    "internalType": "struct DeFiInsurance.UnderwriterInfo",
                    "name": "",
                    "type": "tuple"
                }
            ],
            "stateMutability": "view",
            "type": "function"
        },
        {
            "inputs": [
                {
                    "internalType": "uint256",
                    "name": "_policyId",
                    "type": "uint256"
                },
                {
                    "internalType": "uint24",
                    "name": "_fee",
                    "type": "uint24"
                }
            ],
            "name": "isClaimEligible",
            "outputs": [
                {
                    "internalType": "bool",
                    "name": "",
                    "type": "bool"
                },
                {
                    "internalType": "uint256",
                    "name": "",
                    "type": "uint256"
                }
            ],
            "stateMutability": "view",
            "type": "function"
        },
        {
            "inputs": [],
            "name": "maximumCoverageDuration",
            "outputs": [
                {
                    "internalType": "uint256",
                    "name": "",
                    "type": "uint256"
                }
            ],
            "stateMutability": "view",
            "type": "function"
        },
        {
            "inputs": [],
            "name": "minimumCoverageDuration",
            "outputs": [
                {
                    "internalType": "uint256",
                    "name": "",
                    "type": "uint256"
                }
            ],
            "stateMutability": "view",
            "type": "function"
        },
        {
            "inputs": [],
            "name": "owner",
            "outputs": [
                {
                    "internalType": "address",
                    "name": "",
                    "type": "address"
                }
            ],
            "stateMutability": "view",
            "type": "function"
        },
        {
            "inputs": [],
            "name": "paused",
            "outputs": [
                {
                    "internalType": "bool",
                    "name": "",
                    "type": "bool"
                }
            ],
            "stateMutability": "view",
            "type": "function"
        },
        {
            "inputs": [],
            "name": "payoutToken",
            "outputs": [
                {
                    "internalType": "contract IERC20",
                    "name": "",
                    "type": "address"
                }
            ],
            "stateMutability": "view",
            "type": "function"
        },
        {
            "inputs": [
                {
                    "internalType": "uint256",
                    "name": "",
                    "type": "uint256"
                }
            ],
            "name": "policies",
            "outputs": [
                {
                    "internalType": "address",
                    "name": "holder",
                    "type": "address"
                },
                {
                    "internalType": "address",
                    "name": "assetToken",
                    "type": "address"
                },
                {
                    "internalType": "address",
                    "name": "quoteToken",
                    "type": "address"
                },
                {
                    "internalType": "uint256",
                    "name": "notional",
                    "type": "uint256"
                },
                {
                    "internalType": "uint256",
                    "name": "coverageDuration",
                    "type": "uint256"
                },
                {
                    "internalType": "uint256",
                    "name": "thresholdPercentage",
                    "type": "uint256"
                },
                {
                    "internalType": "uint256",
                    "name": "purchaseRatio",
                    "type": "uint256"
                },
                {
                    "internalType": "uint256",
                    "name": "premium",
                    "type": "uint256"
                },
                {
                    "internalType": "uint256",
                    "name": "purchaseTime",
                    "type": "uint256"
                },
                {
                    "internalType": "uint256",
                    "name": "expiryTime",
                    "type": "uint256"
                },
                {
                    "internalType": "bool",
                    "name": "claimed",
                    "type": "bool"
                },
                {
                    "internalType": "bool",
                    "name": "active",
                    "type": "bool"
                }
            ],
            "stateMutability": "view",
            "type": "function"
        },
        {
            "inputs": [],
            "name": "policyCounter",
            "outputs": [
                {
                    "internalType": "uint256",
                    "name": "",
                    "type": "uint256"
                }
            ],
            "stateMutability": "view",
            "type": "function"
        },
        {
            "inputs": [],
            "name": "premiumRateBps",
            "outputs": [
                {
                    "internalType": "uint256",
                    "name": "",
                    "type": "uint256"
                }
            ],
            "stateMutability": "view",
            "type": "function"
        },
        {
            "inputs": [],
            "name": "premiumToken",
            "outputs": [
                {
                    "internalType": "contract IERC20",
                    "name": "",
                    "type": "address"
                }
            ],
            "stateMutability": "view",
            "type": "function"
        },
        {
            "inputs": [
                {
                    "internalType": "address",
                    "name": "_assetToken",
                    "type": "address"
                },
                {
                    "internalType": "address",
                    "name": "_quoteToken",
                    "type": "address"
                },
                {
                    "internalType": "uint24",
                    "name": "_fee",
                    "type": "uint24"
                },
                {
                    "internalType": "uint256",
                    "name": "_notional",
                    "type": "uint256"
                },
                {
                    "internalType": "uint256",
                    "name": "_coverageDuration",
                    "type": "uint256"
                },
                {
                    "internalType": "uint256",
                    "name": "_thresholdPercentage",
                    "type": "uint256"
                }
            ],
            "name": "purchasePolicy",
            "outputs": [
                {
                    "internalType": "uint256",
                    "name": "",
                    "type": "uint256"
                }
            ],
            "stateMutability": "nonpayable",
            "type": "function"
        },
        {
            "inputs": [
                {
                    "internalType": "address",
                    "name": "_tokenA",
                    "type": "address"
                },
                {
                    "internalType": "address",
                    "name": "_tokenB",
                    "type": "address"
                },
                {
                    "internalType": "uint24",
                    "name": "_fee",
                    "type": "uint24"
                }
            ],
            "name": "removePool",
            "outputs": [],
            "stateMutability": "nonpayable",
            "type": "function"
        },
        {
            "inputs": [],
            "name": "renounceOwnership",
            "outputs": [],
            "stateMutability": "nonpayable",
            "type": "function"
        },
        {
            "inputs": [
                {
                    "internalType": "bool",
                    "name": "_paused",
                    "type": "bool"
                }
            ],
            "name": "setPaused",
            "outputs": [],
            "stateMutability": "nonpayable",
            "type": "function"
        },
        {
            "inputs": [
                {
                    "internalType": "uint256",
                    "name": "_policyId",
                    "type": "uint256"
                },
                {
                    "internalType": "uint24",
                    "name": "_fee",
                    "type": "uint24"
                }
            ],
            "name": "submitClaim",
            "outputs": [],
            "stateMutability": "nonpayable",
            "type": "function"
        },
        {
            "inputs": [
                {
                    "internalType": "bytes32",
                    "name": "",
                    "type": "bytes32"
                }
            ],
            "name": "tokenPools",
            "outputs": [
                {
                    "internalType": "address",
                    "name": "poolAddress",
                    "type": "address"
                },
                {
                    "internalType": "address",
                    "name": "token0",
                    "type": "address"
                },
                {
                    "internalType": "address",
                    "name": "token1",
                    "type": "address"
                },
                {
                    "internalType": "uint24",
                    "name": "fee",
                    "type": "uint24"
                },
                {
                    "internalType": "uint128",
                    "name": "liquidity",
                    "type": "uint128"
                },
                {
                    "internalType": "bool",
                    "name": "isActive",
                    "type": "bool"
                }
            ],
            "stateMutability": "view",
            "type": "function"
        },
        {
            "inputs": [],
            "name": "totalPremiumsCollected",
            "outputs": [
                {
                    "internalType": "uint256",
                    "name": "",
                    "type": "uint256"
                }
            ],
            "stateMutability": "view",
            "type": "function"
        },
        {
            "inputs": [],
            "name": "totalUnderwritingPool",
            "outputs": [
                {
                    "internalType": "uint256",
                    "name": "",
                    "type": "uint256"
                }
            ],
            "stateMutability": "view",
            "type": "function"
        },
        {
            "inputs": [
                {
                    "internalType": "address",
                    "name": "newOwner",
                    "type": "address"
                }
            ],
            "name": "transferOwnership",
            "outputs": [],
            "stateMutability": "nonpayable",
            "type": "function"
        },
        {
            "inputs": [],
            "name": "underwriterShareBps",
            "outputs": [
                {
                    "internalType": "uint256",
                    "name": "",
                    "type": "uint256"
                }
            ],
            "stateMutability": "view",
            "type": "function"
        },
        {
            "inputs": [
                {
                    "internalType": "address",
                    "name": "",
                    "type": "address"
                }
            ],
            "name": "underwriters",
            "outputs": [
                {
                    "internalType": "uint256",
                    "name": "depositedAmount",
                    "type": "uint256"
                },
                {
                    "internalType": "uint256",
                    "name": "premiumEarned",
                    "type": "uint256"
                },
                {
                    "internalType": "uint256",
                    "name": "lastDepositTime",
                    "type": "uint256"
                }
            ],
            "stateMutability": "view",
            "type": "function"
        },
        {
            "inputs": [],
            "name": "uniswapFactory",
            "outputs": [
                {
                    "internalType": "contract IUniswapV3Factory",
                    "name": "",
                    "type": "address"
                }
            ],
            "stateMutability": "view",
            "type": "function"
        },
        {
            "inputs": [
                {
                    "internalType": "uint256",
                    "name": "_min",
                    "type": "uint256"
                },
                {
                    "internalType": "uint256",
                    "name": "_max",
                    "type": "uint256"
                }
            ],
            "name": "updateDurationLimits",
            "outputs": [],
            "stateMutability": "nonpayable",
            "type": "function"
        },
        {
            "inputs": [
                {
                    "internalType": "address",
                    "name": "_tokenA",
                    "type": "address"
                },
                {
                    "internalType": "address",
                    "name": "_tokenB",
                    "type": "address"
                },
                {
                    "internalType": "uint24",
                    "name": "_fee",
                    "type": "uint24"
                }
            ],
            "name": "updatePoolLiquidity",
            "outputs": [],
            "stateMutability": "nonpayable",
            "type": "function"
        },
        {
            "inputs": [
                {
                    "internalType": "uint256",
                    "name": "_premiumRateBps",
                    "type": "uint256"
                },
                {
                    "internalType": "uint256",
                    "name": "_underwriterShareBps",
                    "type": "uint256"
                }
            ],
            "name": "updateRates",
            "outputs": [],
            "stateMutability": "nonpayable",
            "type": "function"
        },
        {
            "inputs": [
                {
                    "internalType": "uint256",
                    "name": "_amount",
                    "type": "uint256"
                }
            ],
            "name": "withdrawLiquidity",
            "outputs": [],
            "stateMutability": "nonpayable",
            "type": "function"
        },
        {
            "inputs": [],
            "name": "withdrawSurplus",
            "outputs": [],
            "stateMutability": "nonpayable",
            "type": "function"
        }
    ],
    "bytecode": "0x6080604052620151806008556301e133806009556101f4600a55611f40600b553480156200002c57600080fd5b5060405162003ecf38038062003ecf8339810160408190526200004f9162000112565b6001600090815562000060620000f1565b600180546001600160a01b0319166001600160a01b038316908117909155604051919250906000907f8be0079c531659141344cd1fd0a4f28419497f9722a3daafe3b4186f6b6457e0908290a350600c80546001600160a01b039485166001600160a01b031991821617909155600d805493851693821693909317909255600e80549190931691161790556200015b565b3390565b80516001600160a01b03811681146200010d57600080fd5b919050565b60008060006060848603121562000127578283fd5b6200013284620000f5565b92506200014260208501620000f5565b91506200015260408501620000f5565b90509250925092565b613d64806200016b6000396000f3fe608060405234801561001057600080fd5b50600436106102c85760003560e01c806376d58e1a1161017b578063b180783d116100d8578063d817fad81161008c578063ec964e1511610071578063ec964e15146105a5578063f1469382146105b8578063f2fde38b146105cb576102c8565b8063d817fad81461056d578063e6411f3914610580576102c8565b8063cc038010116100bd578063cc0380101461051a578063d3e894831461053a578063d52c1bea14610565576102c8565b8063b180783d146104ff578063ca989c0114610507576102c8565b80638da5cb5b1161012f578063a4a84e9911610114578063a4a84e99146104d1578063a6407e5b146104e4578063adca5ac6146104ec576102c8565b80638da5cb5b146104b657806399f59468146104be576102c8565b8063832b3f5a11610160578063832b3f5a1461049e5780638a24c175146104a65780638bdb2afa146104ae576102c8565b806376d58e1a146104695780637d5336421461047c576102c8565b806330ba844f116102295780634efa82b6116101dd5780635c975abb116101c25780635c975abb1461044457806370f326b214610459578063715018a614610461576102c8565b80634efa82b61461040f5780635a195bb114610424576102c8565b80633dadde201161020e5780633dadde20146103d45780634a277c62146103dc5780634b2fd8ca146103fc576102c8565b806330ba844f146103ae5780633c1f4378146103c1576102c8565b806316c38b3c116102805780631a7ca527116102655780631a7ca527146103545780631d8eb73114610367578063242162e614610388576102c8565b806316c38b3c14610339578063182cca591461034c576102c8565b8063135e1e91116102b1578063135e1e911461030b5780631428e7601461031e578063156f1d7414610326576102c8565b80630a861f2a146102cd5780630caee2ca146102e2575b600080fd5b6102e06102db3660046132c5565b6105de565b005b6102f56102f03660046133f5565b61074d565b604051610302919061368e565b60405180910390f35b6102f5610319366004613247565b610774565b6102f5610c9c565b6102f56103343660046133f5565b610ca2565b6102e06103473660046132a9565b610cf8565b6102f5610dea565b6102e0610362366004613201565b610df0565b61037a6103753660046133a9565b610f50565b60405161030292919061367e565b61039b610396366004613201565b61107b565b6040516103029796959493929190613524565b6102e06103bc366004613201565b611195565b6102e06103cf3660046133a9565b61133e565b6102f5611738565b6103ef6103ea366004613201565b61173e565b6040516103029190613bce565b6102e061040a3660046133d4565b61180c565b610417611904565b60405161030291906134a7565b6104376104323660046131c9565b611920565b6040516103029190613c47565b61044c61197b565b6040516103029190613673565b6102f561199c565b6102e06119a2565b6102e06104773660046132c5565b611ab9565b61048f61048a3660046131c9565b611c4c565b60405161030293929190613cc1565b6102f5611c6d565b6102e0611c73565b610417611d9d565b610417611db9565b6102f56104cc3660046131c9565b611dd5565b6102e06104df366004613201565b611e6c565b6102f561244e565b6102f56104fa366004613201565b612454565b6104176124d0565b6102f5610515366004613201565b6124ec565b61052d6105283660046132c5565b61272e565b6040516103029190613b1a565b61054d6105483660046132c5565b6127fa565b6040516103029c9b9a99989796959493929190613589565b6102f561287b565b6102f561057b366004613201565b612881565b61059361058e3660046132c5565b612896565b604051610302969594939291906134c8565b6102f56105b33660046133d4565b612922565b6102e06105c63660046133d4565b61294e565b6102e06105d93660046131c9565b612ace565b6002600054141561065057604080517f08c379a000000000000000000000000000000000000000000000000000000000815260206004820152601f60248201527f5265656e7472616e637947756172643a207265656e7472616e742063616c6c00604482015290519081900360640190fd5b6002600090815533815260036020526040902080548211156106a7576040517f08c379a000000000000000000000000000000000000000000000000000000000815260040161069e9061392b565b60405180910390fd5b60006106b233611dd5565b8254849003835560006001840155600680548590039055600d54909150838201906106f49073ffffffffffffffffffffffffffffffffffffffff163383612c70565b3373ffffffffffffffffffffffffffffffffffffffff167fb1cce8684b4ffa8667b4577654e61ee3480d661ee9c27522ac80e211f6bd4d258260405161073a919061368e565b60405180910390a2505060016000555050565b60008082841161075e576000610762565b8284035b612710908602049150505b9392505050565b6000600260005414156107e857604080517f08c379a000000000000000000000000000000000000000000000000000000000815260206004820152601f60248201527f5265656e7472616e637947756172643a207265656e7472616e742063616c6c00604482015290519081900360640190fd5b6002600055600e5474010000000000000000000000000000000000000000900460ff1615610842576040517f08c379a000000000000000000000000000000000000000000000000000000000815260040161069e90613a3e565b6000841161087c576040517f08c379a000000000000000000000000000000000000000000000000000000000815260040161069e9061384f565b600854831015801561089057506009548311155b6108c6576040517f08c379a000000000000000000000000000000000000000000000000000000000815260040161069e90613697565b6000821180156108d857506127108211155b61090e576040517f08c379a000000000000000000000000000000000000000000000000000000000815260040161069e90613962565b600061091b888888612454565b600081815260046020526040902060030154909150700100000000000000000000000000000000900460ff1661097d576040517f08c379a000000000000000000000000000000000000000000000000000000000815260040161069e90613773565b600061098a868686610ca2565b905060006109998a8a8a6124ec565b600c549091506109c19073ffffffffffffffffffffffffffffffffffffffff16333085612d02565b600060056000815460010191905081905590506040518061018001604052803373ffffffffffffffffffffffffffffffffffffffff1681526020018c73ffffffffffffffffffffffffffffffffffffffff1681526020018b73ffffffffffffffffffffffffffffffffffffffff1681526020018981526020018881526020018781526020018381526020018481526020014281526020018842018152602001600015158152602001600115158152506002600083815260200190815260200160002060008201518160000160006101000a81548173ffffffffffffffffffffffffffffffffffffffff021916908373ffffffffffffffffffffffffffffffffffffffff16021790555060208201518160010160006101000a81548173ffffffffffffffffffffffffffffffffffffffff021916908373ffffffffffffffffffffffffffffffffffffffff16021790555060408201518160020160006101000a81548173ffffffffffffffffffffffffffffffffffffffff021916908373ffffffffffffffffffffffffffffffffffffffff160217905550606082015181600301556080820151816004015560a0820151816005015560c0820151816006015560e082015181600701556101008201518160080155610120820151816009015561014082015181600a0160006101000a81548160ff02191690831515021790555061016082015181600a0160016101000a81548160ff0219169083151502179055509050506000612710600b54850281610bf657fe5b04905080600660008282540192505081905550836007600082825401925050819055503373ffffffffffffffffffffffffffffffffffffffff16827f7a38272381abbfb5de17b781d609f321cacfd93611277880bf47015aa48481c88e8e8d8989600260008b815260200190815260200160002060090154604051610c8096959493929190613630565b60405180910390a35060016000559a9950505050505050505050565b60085481565b600080612710600a54860281610cb457fe5b0490506000600954856127100281610cc857fe5b04905060028404612710036305f5e10083830282020480610cea576001610cec565b805b98975050505050505050565b610d00612d9d565b73ffffffffffffffffffffffffffffffffffffffff16610d1e611db9565b73ffffffffffffffffffffffffffffffffffffffff1614610da057604080517f08c379a000000000000000000000000000000000000000000000000000000000815260206004820181905260248201527f4f776e61626c653a2063616c6c6572206973206e6f7420746865206f776e6572604482015290519081900360640190fd5b600e805491151574010000000000000000000000000000000000000000027fffffffffffffffffffffff00ffffffffffffffffffffffffffffffffffffffff909216919091179055565b60095481565b6000610dfd848484612454565b6000818152600460205260409020600381015491925090700100000000000000000000000000000000900460ff16610e61576040517f08c379a000000000000000000000000000000000000000000000000000000000815260040161069e90613aac565b8054604080517f1a686502000000000000000000000000000000000000000000000000000000008152905173ffffffffffffffffffffffffffffffffffffffff909216918291631a686502916004808301926020929190829003018186803b158015610ecc57600080fd5b505afa158015610ee0573d6000803e3d6000fd5b505050506040513d601f19601f82011682018060405250810190610f0491906132dd565b60039290920180547fffffffffffffffffffffffffffffffff00000000000000000000000000000000166fffffffffffffffffffffffffffffffff909316929092179091555050505050565b6000828152600260208181526040808420815161018081018352815473ffffffffffffffffffffffffffffffffffffffff9081168252600183015481169482019490945293810154909216908301526003810154606083015260048101546080830152600581015460a0830152600681015460c0830152600781015460e08301526008810154610100808401919091526009820154610120840152600a9091015460ff8082161515610140850152919004161580156101608301528291908061101b57508061014001515b8061102a575080610120015142115b1561103c576000809250925050611074565b600061105182602001518360400151876124ec565b905060006110638360c0015183612922565b60a090930151831015945091925050505b9250929050565b6000806000806000806000806110928b8b8b612454565b6000818152600460209081526040808320815160c081018352815473ffffffffffffffffffffffffffffffffffffffff908116825260018301548116948201949094526002820154938416928101929092527401000000000000000000000000000000000000000090920462ffffff1660608201526003909101546fffffffffffffffffffffffffffffffff81166080830152700100000000000000000000000000000000900460ff1615801560a08301529293509161115a576111578d8d8d6124ec565b90505b8151602083015160408401516060850151608086015160a090960151939d50919b509950975091955093509150509397509397509397909450565b61119d612d9d565b73ffffffffffffffffffffffffffffffffffffffff166111bb611db9565b73ffffffffffffffffffffffffffffffffffffffff161461123d57604080517f08c379a000000000000000000000000000000000000000000000000000000000815260206004820181905260248201527f4f776e61626c653a2063616c6c6572206973206e6f7420746865206f776e6572604482015290519081900360640190fd5b600061124a848484612454565b600081815260046020526040902060030154909150700100000000000000000000000000000000900460ff166112ac576040517f08c379a000000000000000000000000000000000000000000000000000000000815260040161069e90613aac565b6000818152600460205260409081902060030180547fffffffffffffffffffffffffffffff00ffffffffffffffffffffffffffffffff1690555173ffffffffffffffffffffffffffffffffffffffff80851691908616907f07cf8ba16f09092d946a98cad284f472a4b3af729966d0a9791b83908e6688f590611330908690613c68565b60405180910390a350505050565b600260005414156113b057604080517f08c379a000000000000000000000000000000000000000000000000000000000815260206004820152601f60248201527f5265656e7472616e637947756172643a207265656e7472616e742063616c6c00604482015290519081900360640190fd5b6002600055600e5474010000000000000000000000000000000000000000900460ff161561140a576040517f08c379a000000000000000000000000000000000000000000000000000000000815260040161069e90613a3e565b6000828152600260205260409020805473ffffffffffffffffffffffffffffffffffffffff163314611468576040517f08c379a000000000000000000000000000000000000000000000000000000000815260040161069e9061373c565b600a810154610100900460ff166114ab576040517f08c379a000000000000000000000000000000000000000000000000000000000815260040161069e906137aa565b600a81015460ff16156114ea576040517f08c379a000000000000000000000000000000000000000000000000000000000815260040161069e906138f4565b8060090154421115611528576040517f08c379a000000000000000000000000000000000000000000000000000000000815260040161069e906139d0565b600181015460028201546000916115599173ffffffffffffffffffffffffffffffffffffffff9182169116856124ec565b9050600061156b836006015483612922565b90506000836005015482101590503373ffffffffffffffffffffffffffffffffffffffff16867ffbf72bfe7c05fe01c26ca939f73025c6096f941c514b04ba3adde0416aaec13c85846040516115c2929190613ca3565b60405180910390a380156116f957600a840180547fffffffffffffffffffffffffffffffffffffffffffffffffffffffffffff00ff7fffffffffffffffffffffffffffffffffffffffffffffffffffffffffffffff009091166001171690556003840154600585015460009161163991859061074d565b9050806006541015611677576040517f08c379a000000000000000000000000000000000000000000000000000000000815260040161069e90613705565b600680548290039055600d546116a49073ffffffffffffffffffffffffffffffffffffffff163383612c70565b3373ffffffffffffffffffffffffffffffffffffffff16877fbeaa99d72a600712e4656a7da04b2cabe31fb50fbf8f5b5f96513b0a4f495c1a836040516116eb919061368e565b60405180910390a35061172b565b6040517f08c379a000000000000000000000000000000000000000000000000000000000815260040161069e90613886565b5050600160005550505050565b60075481565b6117466130a7565b6000611753858585612454565b600090815260046020908152604091829020825160c081018452815473ffffffffffffffffffffffffffffffffffffffff908116825260018301548116938201939093526002820154928316938101939093527401000000000000000000000000000000000000000090910462ffffff166060830152600301546fffffffffffffffffffffffffffffffff81166080830152700100000000000000000000000000000000900460ff16151560a082015295945050505050565b611814612d9d565b73ffffffffffffffffffffffffffffffffffffffff16611832611db9565b73ffffffffffffffffffffffffffffffffffffffff16146118b457604080517f08c379a000000000000000000000000000000000000000000000000000000000815260206004820181905260248201527f4f776e61626c653a2063616c6c6572206973206e6f7420746865206f776e6572604482015290519081900360640190fd5b6000821180156118c357508082105b6118f9576040517f08c379a000000000000000000000000000000000000000000000000000000000815260040161069e906138bd565b600891909155600955565b600d5473ffffffffffffffffffffffffffffffffffffffff1681565b6119286130dc565b5073ffffffffffffffffffffffffffffffffffffffff811660009081526003602090815260409182902082516060810184528154815260018201549281019290925260020154918101919091525b919050565b600e5474010000000000000000000000000000000000000000900460ff1681565b60065481565b6119aa612d9d565b73ffffffffffffffffffffffffffffffffffffffff166119c8611db9565b73ffffffffffffffffffffffffffffffffffffffff1614611a4a57604080517f08c379a000000000000000000000000000000000000000000000000000000000815260206004820181905260248201527f4f776e61626c653a2063616c6c6572206973206e6f7420746865206f776e6572604482015290519081900360640190fd5b60015460405160009173ffffffffffffffffffffffffffffffffffffffff16907f8be0079c531659141344cd1fd0a4f28419497f9722a3daafe3b4186f6b6457e0908390a3600180547fffffffffffffffffffffffff0000000000000000000000000000000000000000169055565b60026000541415611b2b57604080517f08c379a000000000000000000000000000000000000000000000000000000000815260206004820152601f60248201527f5265656e7472616e637947756172643a207265656e7472616e742063616c6c00604482015290519081900360640190fd5b6002600055600e5474010000000000000000000000000000000000000000900460ff1615611b85576040517f08c379a000000000000000000000000000000000000000000000000000000000815260040161069e90613a3e565b60008111611bbf576040517f08c379a000000000000000000000000000000000000000000000000000000000815260040161069e90613ae3565b600d54611be49073ffffffffffffffffffffffffffffffffffffffff16333084612d02565b3360008181526003602052604090819020805484018155426002820155600680548501905590519091907f7ff07ce9a287649537e4b012e45cf012d90228b12e2b56bb03515a6b5436fcdf90611c3b90859061368e565b60405180910390a250506001600055565b60036020526000908152604090208054600182015460029092015490919083565b600a5481565b611c7b612d9d565b73ffffffffffffffffffffffffffffffffffffffff16611c99611db9565b73ffffffffffffffffffffffffffffffffffffffff1614611d1b57604080517f08c379a000000000000000000000000000000000000000000000000000000000815260206004820181905260248201527f4f776e61626c653a2063616c6c6572206973206e6f7420746865206f776e6572604482015290519081900360640190fd5b6000612710600b546007540281611d2e57fe5b0460075403905060008111611d6f576040517f08c379a000000000000000000000000000000000000000000000000000000000815260040161069e90613999565b611d9a611d7a611db9565b600c5473ffffffffffffffffffffffffffffffffffffffff169083612c70565b50565b600e5473ffffffffffffffffffffffffffffffffffffffff1681565b60015473ffffffffffffffffffffffffffffffffffffffff1690565b73ffffffffffffffffffffffffffffffffffffffff811660009081526003602090815260408083208151606081018352815481526001820154938101939093526002015490820152600654611e2e576000915050611976565b600060065482600001516127100281611e4357fe5b0490506000612710600b546007540281611e5957fe5b0490506127108282020495945050505050565b611e74612d9d565b73ffffffffffffffffffffffffffffffffffffffff16611e92611db9565b73ffffffffffffffffffffffffffffffffffffffff1614611f1457604080517f08c379a000000000000000000000000000000000000000000000000000000000815260206004820181905260248201527f4f776e61626c653a2063616c6c6572206973206e6f7420746865206f776e6572604482015290519081900360640190fd5b73ffffffffffffffffffffffffffffffffffffffff831615801590611f4e575073ffffffffffffffffffffffffffffffffffffffff821615155b611f84576040517f08c379a000000000000000000000000000000000000000000000000000000000815260040161069e906137e1565b8062ffffff166101f41480611f9f57508062ffffff16610bb8145b80611fb057508062ffffff16612710145b611fe6576040517f08c379a000000000000000000000000000000000000000000000000000000000815260040161069e90613a75565b600e546040517f1698ee8200000000000000000000000000000000000000000000000000000000815260009173ffffffffffffffffffffffffffffffffffffffff1690631698ee8290612041908790879087906004016135fb565b60206040518083038186803b15801561205957600080fd5b505afa15801561206d573d6000803e3d6000fd5b505050506040513d601f19601f8201168201806040525081019061209191906131e5565b905073ffffffffffffffffffffffffffffffffffffffff81166120e0576040517f08c379a000000000000000000000000000000000000000000000000000000000815260040161069e90613818565b600081905060008173ffffffffffffffffffffffffffffffffffffffff16630dfe16816040518163ffffffff1660e01b815260040160206040518083038186803b15801561212d57600080fd5b505afa158015612141573d6000803e3d6000fd5b505050506040513d601f19601f8201168201806040525081019061216591906131e5565b905060008273ffffffffffffffffffffffffffffffffffffffff1663d21220a76040518163ffffffff1660e01b815260040160206040518083038186803b1580156121af57600080fd5b505afa1580156121c3573d6000803e3d6000fd5b505050506040513d601f19601f820116820180604052508101906121e791906131e5565b905060008373ffffffffffffffffffffffffffffffffffffffff16631a6865026040518163ffffffff1660e01b815260040160206040518083038186803b15801561223157600080fd5b505afa158015612245573d6000803e3d6000fd5b505050506040513d601f19601f8201168201806040525081019061226991906132dd565b90506000612278898989612454565b6040805160c08101825273ffffffffffffffffffffffffffffffffffffffff808a168252878116602080840191825288831684860190815262ffffff808f16606087019081526fffffffffffffffffffffffffffffffff808c1660808901908152600160a08a0181815260008d81526004909852968b902099518a54908a167fffffffffffffffffffffffff0000000000000000000000000000000000000000918216178b559751908a018054918a169189169190911790559351600289018054935190941674010000000000000000000000000000000000000000027fffffffffffffffffff000000ffffffffffffffffffffffffffffffffffffffff918916939097169290921791909116949094179055516003909401805491511515700100000000000000000000000000000000027fffffffffffffffffffffffffffffff00ffffffffffffffffffffffffffffffff959093167fffffffffffffffffffffffffffffffff00000000000000000000000000000000909216919091179390931617909155905191925089811691908b16907f8d52a3c12c7f16724f48bc8b00102937a6a2e241168a745958441576419a64999061243b908b908b90613c78565b60405180910390a3505050505050505050565b600b5481565b60008060008473ffffffffffffffffffffffffffffffffffffffff168673ffffffffffffffffffffffffffffffffffffffff1610612493578486612496565b85855b915091508181856040516020016124af93929190613440565b60405160208183030381529060405280519060200120925050509392505050565b600c5473ffffffffffffffffffffffffffffffffffffffff1681565b6000806124fa858585612454565b600081815260046020908152604091829020825160c081018452815473ffffffffffffffffffffffffffffffffffffffff908116825260018301548116938201939093526002820154928316938101939093527401000000000000000000000000000000000000000090910462ffffff166060830152600301546fffffffffffffffffffffffffffffffff81166080830152700100000000000000000000000000000000900460ff16151560a08201819052919250906125e6576040517f08c379a000000000000000000000000000000000000000000000000000000000815260040161069e90613aac565b60008160000151905060008173ffffffffffffffffffffffffffffffffffffffff16633850c7bd6040518163ffffffff1660e01b815260040160e06040518083038186803b15801561263757600080fd5b505afa15801561264b573d6000803e3d6000fd5b505050506040513d601f19601f8201168201806040525081019061266f919061330d565b505050505050905060008873ffffffffffffffffffffffffffffffffffffffff16846020015173ffffffffffffffffffffffffffffffffffffffff1614156126dd5750670de0b6b3a764000073ffffffffffffffffffffffffffffffffffffffff821680020260c01c610cec565b73ffffffffffffffffffffffffffffffffffffffff82168002807f0de0b6b3a76400000000000000000000000000000000000000000000000000008161271f57fe5b049a9950505050505050505050565b6127366130fd565b50600090815260026020818152604092839020835161018081018552815473ffffffffffffffffffffffffffffffffffffffff9081168252600183015481169382019390935292810154909116928201929092526003820154606082015260048201546080820152600582015460a0820152600682015460c0820152600782015460e08201526008820154610100808301919091526009830154610120830152600a9092015460ff8082161515610140840152929004909116151561016082015290565b600260208190526000918252604090912080546001820154928201546003830154600484015460058501546006860154600787015460088801546009890154600a9099015473ffffffffffffffffffffffffffffffffffffffff9889169a891699979098169795969495939492939192909160ff808216916101009004168c565b60055481565b600061288e8484846124ec565b949350505050565b600460205260009081526040902080546001820154600283015460039093015473ffffffffffffffffffffffffffffffffffffffff928316939183169282169174010000000000000000000000000000000000000000900462ffffff16906fffffffffffffffffffffffffffffffff811690700100000000000000000000000000000000900460ff1686565b600082821061293357506000612948565b8183038361271082028161294357fe5b049150505b92915050565b612956612d9d565b73ffffffffffffffffffffffffffffffffffffffff16612974611db9565b73ffffffffffffffffffffffffffffffffffffffff16146129f657604080517f08c379a000000000000000000000000000000000000000000000000000000000815260206004820181905260248201527f4f776e61626c653a2063616c6c6572206973206e6f7420746865206f776e6572604482015290519081900360640190fd5b600082118015612a0857506127108211155b612a3e576040517f08c379a000000000000000000000000000000000000000000000000000000000815260040161069e90613a07565b600081118015612a5057506127108111155b612a86576040517f08c379a000000000000000000000000000000000000000000000000000000000815260040161069e906136ce565b600a829055600b8190556040517ffaccb0639ff7851e0e24f3b2d9ab03cd62ffb63f5b4d90aaeff85bb078c1fa4890612ac29084908490613cb3565b60405180910390a15050565b612ad6612d9d565b73ffffffffffffffffffffffffffffffffffffffff16612af4611db9565b73ffffffffffffffffffffffffffffffffffffffff1614612b7657604080517f08c379a000000000000000000000000000000000000000000000000000000000815260206004820181905260248201527f4f776e61626c653a2063616c6c6572206973206e6f7420746865206f776e6572604482015290519081900360640190fd5b73ffffffffffffffffffffffffffffffffffffffff8116612be2576040517f08c379a0000000000000000000000000000000000000000000000000000000008152600401808060200182810382526026815260200180613d086026913960400191505060405180910390fd5b60015460405173ffffffffffffffffffffffffffffffffffffffff8084169216907f8be0079c531659141344cd1fd0a4f28419497f9722a3daafe3b4186f6b6457e090600090a3600180547fffffffffffffffffffffffff00000000000000000000000000000000000000001673ffffffffffffffffffffffffffffffffffffffff92909216919091179055565b6040805173ffffffffffffffffffffffffffffffffffffffff8416602482015260448082018490528251808303909101815260649091019091526020810180517bffffffffffffffffffffffffffffffffffffffffffffffffffffffff167fa9059cbb00000000000000000000000000000000000000000000000000000000179052612cfd908490612da1565b505050565b6040805173ffffffffffffffffffffffffffffffffffffffff80861660248301528416604482015260648082018490528251808303909101815260849091019091526020810180517bffffffffffffffffffffffffffffffffffffffffffffffffffffffff167f23b872dd00000000000000000000000000000000000000000000000000000000179052612d97908590612da1565b50505050565b3390565b6000612e03826040518060400160405280602081526020017f5361666545524332303a206c6f772d6c6576656c2063616c6c206661696c65648152508573ffffffffffffffffffffffffffffffffffffffff16612e799092919063ffffffff16565b805190915015612cfd57808060200190516020811015612e2257600080fd5b5051612cfd576040517f08c379a000000000000000000000000000000000000000000000000000000000815260040180806020018281038252602a815260200180613d2e602a913960400191505060405180910390fd5b606061288e848460008585612e8d85612fe3565b612ef857604080517f08c379a000000000000000000000000000000000000000000000000000000000815260206004820152601d60248201527f416464726573733a2063616c6c20746f206e6f6e2d636f6e7472616374000000604482015290519081900360640190fd5b6000808673ffffffffffffffffffffffffffffffffffffffff1685876040518082805190602001908083835b60208310612f6157805182527fffffffffffffffffffffffffffffffffffffffffffffffffffffffffffffffe09092019160209182019101612f24565b6001836020036101000a03801982511681845116808217855250505050505090500191505060006040518083038185875af1925050503d8060008114612fc3576040519150601f19603f3d011682016040523d82523d6000602084013e612fc8565b606091505b5091509150612fd8828286612fe9565b979650505050505050565b3b151590565b60608315612ff857508161076d565b8251156130085782518084602001fd5b816040517f08c379a00000000000000000000000000000000000000000000000000000000081526004018080602001828103825283818151815260200191508051906020019080838360005b8381101561306c578181015183820152602001613054565b50505050905090810190601f1680156130995780820380516001836020036101000a031916815260200191505b509250505060405180910390fd5b6040805160c081018252600080825260208201819052918101829052606081018290526080810182905260a081019190915290565b60405180606001604052806000815260200160008152602001600081525090565b604051806101800160405280600073ffffffffffffffffffffffffffffffffffffffff168152602001600073ffffffffffffffffffffffffffffffffffffffff168152602001600073ffffffffffffffffffffffffffffffffffffffff168152602001600081526020016000815260200160008152602001600081526020016000815260200160008152602001600081526020016000151581526020016000151581525090565b805161ffff8116811461197657600080fd5b803562ffffff8116811461197657600080fd5b6000602082840312156131da578081fd5b813561076d81613cd7565b6000602082840312156131f6578081fd5b815161076d81613cd7565b600080600060608486031215613215578182fd5b833561322081613cd7565b9250602084013561323081613cd7565b915061323e604085016131b6565b90509250925092565b60008060008060008060c0878903121561325f578182fd5b863561326a81613cd7565b9550602087013561327a81613cd7565b9450613288604088016131b6565b9350606087013592506080870135915060a087013590509295509295509295565b6000602082840312156132ba578081fd5b813561076d81613cf9565b6000602082840312156132d6578081fd5b5035919050565b6000602082840312156132ee578081fd5b81516fffffffffffffffffffffffffffffffff8116811461076d578182fd5b600080600080600080600060e0888a031215613327578081fd5b875161333281613cd7565b8097505060208801518060020b8114613349578182fd5b9550613357604089016131a4565b9450613365606089016131a4565b9350613373608089016131a4565b925060a088015160ff81168114613388578182fd5b60c089015190925061339981613cf9565b8091505092959891949750929550565b600080604083850312156133bb578182fd5b823591506133cb602084016131b6565b90509250929050565b600080604083850312156133e6578182fd5b50508035926020909101359150565b600080600060608486031215613409578081fd5b505081359360208301359350604090920135919050565b73ffffffffffffffffffffffffffffffffffffffff169052565b15159052565b606093841b7fffffffffffffffffffffffffffffffffffffffff00000000000000000000000090811682529290931b909116601483015260e81b7fffffff0000000000000000000000000000000000000000000000000000000000166028820152602b0190565b73ffffffffffffffffffffffffffffffffffffffff91909116815260200190565b73ffffffffffffffffffffffffffffffffffffffff9687168152948616602086015292909416604084015262ffffff1660608301526fffffffffffffffffffffffffffffffff909216608082015290151560a082015260c00190565b73ffffffffffffffffffffffffffffffffffffffff9788168152958716602087015293909516604085015262ffffff9190911660608401526fffffffffffffffffffffffffffffffff16608083015260a082019290925290151560c082015260e00190565b73ffffffffffffffffffffffffffffffffffffffff9c8d1681529a8c1660208c015298909a1660408a01526060890196909652608088019490945260a087019290925260c086015260e08501526101008401526101208301529115156101408201529015156101608201526101800190565b73ffffffffffffffffffffffffffffffffffffffff938416815291909216602082015262ffffff909116604082015260600190565b73ffffffffffffffffffffffffffffffffffffffff968716815294909516602085015260408401929092526060830152608082015260a081019190915260c00190565b901515815260200190565b9115158252602082015260400190565b90815260200190565b60208082526019908201527f496e76616c696420636f766572616765206475726174696f6e00000000000000604082015260600190565b60208082526012908201527f496e76616c696420736861726520726174650000000000000000000000000000604082015260600190565b60208082526016908201527f496e73756666696369656e74206c697175696469747900000000000000000000604082015260600190565b60208082526011908201527f4e6f7420706f6c69637920686f6c646572000000000000000000000000000000604082015260600190565b60208082526013908201527f506f6f6c206e6f7420636f6e6669677572656400000000000000000000000000604082015260600190565b60208082526011908201527f506f6c696379206e6f7420616374697665000000000000000000000000000000604082015260600190565b60208082526017908201527f496e76616c696420746f6b656e20616464726573736573000000000000000000604082015260600190565b60208082526013908201527f506f6f6c20646f6573206e6f7420657869737400000000000000000000000000604082015260600190565b60208082526019908201527f4e6f74696f6e616c206d75737420626520706f73697469766500000000000000604082015260600190565b60208082526017908201527f436c61696d207468726573686f6c64206e6f74206d6574000000000000000000604082015260600190565b60208082526017908201527f496e76616c6964206475726174696f6e206c696d697473000000000000000000604082015260600190565b6020808252600f908201527f416c726561647920636c61696d65640000000000000000000000000000000000604082015260600190565b6020808252601d908201527f496e73756666696369656e74206465706f736974656420616d6f756e74000000604082015260600190565b60208082526011908201527f496e76616c6964207468726573686f6c64000000000000000000000000000000604082015260600190565b60208082526016908201527f4e6f20737572706c757320746f20776974686472617700000000000000000000604082015260600190565b6020808252600e908201527f506f6c6963792065787069726564000000000000000000000000000000000000604082015260600190565b60208082526014908201527f496e76616c6964207072656d69756d2072617465000000000000000000000000604082015260600190565b60208082526012908201527f436f6e7472616374206973207061757365640000000000000000000000000000604082015260600190565b60208082526010908201527f496e76616c696420666565207469657200000000000000000000000000000000604082015260600190565b6020808252600f908201527f506f6f6c206e6f74206163746976650000000000000000000000000000000000604082015260600190565b60208082526017908201527f416d6f756e74206d75737420626520706f736974697665000000000000000000604082015260600190565b600061018082019050613b2e828451613420565b6020830151613b406020840182613420565b506040830151613b536040840182613420565b50606083015160608301526080830151608083015260a083015160a083015260c083015160c083015260e083015160e083015261010080840151818401525061012080840151818401525061014080840151613bb18285018261343a565b505061016080840151613bc68285018261343a565b505092915050565b600060c08201905073ffffffffffffffffffffffffffffffffffffffff8084511683528060208501511660208401528060408501511660408401525062ffffff60608401511660608301526fffffffffffffffffffffffffffffffff608084015116608083015260a0830151151560a083015292915050565b81518152602080830151908201526040918201519181019190915260600190565b62ffffff91909116815260200190565b62ffffff92909216825273ffffffffffffffffffffffffffffffffffffffff16602082015260400190565b9182521515602082015260400190565b918252602082015260400190565b9283526020830191909152604082015260600190565b73ffffffffffffffffffffffffffffffffffffffff81168114611d9a57600080fd5b8015158114611d9a57600080fdfe4f776e61626c653a206e6577206f776e657220697320746865207a65726f20616464726573735361666545524332303a204552433230206f7065726174696f6e20646964206e6f742073756363656564a164736f6c6343000706000a",
    "linkReferences": {},
    "deployedLinkReferences": {}
}